{
  "address": "0x83e04857D9F13a12311f159d8b5ffd4426899ef5",
  "_format": "hh-sol-artifact-1",
  "contractName": "FeeMediator",
  "sourceName": "contracts/FeeMediator.sol",
  "abi": [
    {
      "inputs": [
        {
          "internalType": "uint256",
          "name": "_uriUpdateFee",
          "type": "uint256"
        },
        {
          "internalType": "uint256",
          "name": "_transferPauseFee",
          "type": "uint256"
        }
      ],
      "stateMutability": "nonpayable",
      "type": "constructor"
    },
    {
      "anonymous": false,
      "inputs": [
        {
          "indexed": true,
          "internalType": "address",
          "name": "admin",
          "type": "address"
        },
        {
          "indexed": false,
          "internalType": "uint256",
          "name": "timestamp",
          "type": "uint256"
        }
      ],
      "name": "AdminAdded",
      "type": "event"
    },
    {
      "anonymous": false,
      "inputs": [
        {
          "indexed": true,
          "internalType": "address",
          "name": "admin",
          "type": "address"
        },
        {
          "indexed": false,
          "internalType": "uint256",
          "name": "timestamp",
          "type": "uint256"
        }
      ],
      "name": "AdminRemoved",
      "type": "event"
    },
    {
      "anonymous": false,
      "inputs": [
        {
          "indexed": true,
          "internalType": "address",
          "name": "admin",
          "type": "address"
        },
        {
          "indexed": false,
          "internalType": "uint96",
          "name": "feeNumerator",
          "type": "uint96"
        },
        {
          "indexed": false,
          "internalType": "uint256",
          "name": "timestamp",
          "type": "uint256"
        }
      ],
      "name": "DefaultRoyaltyChangeRequested",
      "type": "event"
    },
    {
      "anonymous": false,
      "inputs": [
        {
          "indexed": true,
          "internalType": "address",
          "name": "user",
          "type": "address"
        },
        {
          "indexed": false,
          "internalType": "uint256[]",
          "name": "tokenIds",
          "type": "uint256[]"
        },
        {
          "indexed": false,
          "internalType": "bool",
          "name": "pauseState",
          "type": "bool"
        },
        {
          "indexed": false,
          "internalType": "uint256",
          "name": "timestamp",
          "type": "uint256"
        }
      ],
      "name": "TransferPauseRequested",
      "type": "event"
    },
    {
      "anonymous": false,
      "inputs": [
        {
          "indexed": true,
          "internalType": "address",
          "name": "user",
          "type": "address"
        },
        {
          "indexed": true,
          "internalType": "uint256",
          "name": "tokenId",
          "type": "uint256"
        },
        {
          "indexed": false,
          "internalType": "string",
          "name": "newUri",
          "type": "string"
        },
        {
          "indexed": false,
          "internalType": "uint256",
          "name": "timestamp",
          "type": "uint256"
        }
      ],
      "name": "URIUpdateRequested",
      "type": "event"
    },
    {
      "inputs": [
        {
          "internalType": "address",
          "name": "newAdmin",
          "type": "address"
        }
      ],
      "name": "addAdmin",
      "outputs": [],
      "stateMutability": "nonpayable",
      "type": "function"
    },
    {
      "inputs": [
        {
          "internalType": "address",
          "name": "",
          "type": "address"
        }
      ],
      "name": "admins",
      "outputs": [
        {
          "internalType": "bool",
          "name": "",
          "type": "bool"
        }
      ],
      "stateMutability": "view",
      "type": "function"
    },
    {
      "inputs": [],
      "name": "owner",
      "outputs": [
        {
          "internalType": "address",
          "name": "",
          "type": "address"
        }
      ],
      "stateMutability": "view",
      "type": "function"
    },
    {
      "inputs": [
        {
          "internalType": "address",
          "name": "admin",
          "type": "address"
        }
      ],
      "name": "removeAdmin",
      "outputs": [],
      "stateMutability": "nonpayable",
      "type": "function"
    },
    {
      "inputs": [
        {
          "internalType": "uint96",
          "name": "feeNumerator",
          "type": "uint96"
        }
      ],
      "name": "requestDefaultRoyaltyChange",
      "outputs": [],
      "stateMutability": "nonpayable",
      "type": "function"
    },
    {
      "inputs": [
        {
          "internalType": "uint256[]",
          "name": "tokenIds",
          "type": "uint256[]"
        },
        {
          "internalType": "bool",
          "name": "pauseState",
          "type": "bool"
        }
      ],
      "name": "requestTransferPauseUpdate",
      "outputs": [],
      "stateMutability": "payable",
      "type": "function"
    },
    {
      "inputs": [
        {
          "internalType": "uint256",
          "name": "tokenId",
          "type": "uint256"
        },
        {
          "internalType": "string",
          "name": "newUri",
          "type": "string"
        }
      ],
      "name": "requestURIUpdate",
      "outputs": [],
      "stateMutability": "payable",
      "type": "function"
    },
    {
      "inputs": [
        {
          "internalType": "uint256",
          "name": "_fee",
          "type": "uint256"
        }
      ],
      "name": "setTransferPauseFee",
      "outputs": [],
      "stateMutability": "nonpayable",
      "type": "function"
    },
    {
      "inputs": [
        {
          "internalType": "uint256",
          "name": "_fee",
          "type": "uint256"
        }
      ],
      "name": "setURIUpdateFee",
      "outputs": [],
      "stateMutability": "nonpayable",
      "type": "function"
    },
    {
      "inputs": [],
      "name": "transferPauseFee",
      "outputs": [
        {
          "internalType": "uint256",
          "name": "",
          "type": "uint256"
        }
      ],
      "stateMutability": "view",
      "type": "function"
    },
    {
      "inputs": [],
      "name": "uriUpdateFee",
      "outputs": [
        {
          "internalType": "uint256",
          "name": "",
          "type": "uint256"
        }
      ],
      "stateMutability": "view",
      "type": "function"
    },
    {
      "inputs": [
        {
          "internalType": "address payable",
          "name": "recipient",
          "type": "address"
        }
      ],
      "name": "withdraw",
      "outputs": [],
      "stateMutability": "nonpayable",
      "type": "function"
    }
  ],
  "bytecode": "0x60a06040523480156200001157600080fd5b50604051620018ac380380620018ac833981810160405281019062000037919062000168565b3373ffffffffffffffffffffffffffffffffffffffff1660808173ffffffffffffffffffffffffffffffffffffffff168152505060016000803373ffffffffffffffffffffffffffffffffffffffff1673ffffffffffffffffffffffffffffffffffffffff16815260200190815260200160002060006101000a81548160ff02191690831515021790555081600181905550806002819055503373ffffffffffffffffffffffffffffffffffffffff167f723c2b747529ca7f5eb53a74808f4a8b9bf264f0fc450fd904900151da74548a42604051620001189190620001c0565b60405180910390a25050620001dd565b600080fd5b6000819050919050565b62000142816200012d565b81146200014e57600080fd5b50565b600081519050620001628162000137565b92915050565b6000806040838503121562000182576200018162000128565b5b6000620001928582860162000151565b9250506020620001a58582860162000151565b9150509250929050565b620001ba816200012d565b82525050565b6000602082019050620001d76000830184620001af565b92915050565b6080516116ac62000200600039600081816105650152610bd101526116ac6000f3fe6080604052600436106100a75760003560e01c80637025019f116100645780637025019f1461019c57806370480275146101c557806370bef27a146101ee5780638da5cb5b14610219578063d0bc831314610244578063f7e660971461026f576100a7565b80630b6bdb4b146100ac5780630eaaf142146100c85780631785f53c146100f157806320723d8a1461011a578063429b62e51461013657806351cff8d914610173575b600080fd5b6100c660048036038101906100c19190610d7e565b610298565b005b3480156100d457600080fd5b506100ef60048036038101906100ea9190610e14565b61034a565b005b3480156100fd57600080fd5b5061011860048036038101906101139190610e9f565b6103df565b005b610134600480360381019061012f9190610f22565b610699565b005b34801561014257600080fd5b5061015d60048036038101906101589190610e9f565b610736565b60405161016a9190610f91565b60405180910390f35b34801561017f57600080fd5b5061019a60048036038101906101959190610fea565b610756565b005b3480156101a857600080fd5b506101c360048036038101906101be9190610e14565b610906565b005b3480156101d157600080fd5b506101ec60048036038101906101e79190610e9f565b61099b565b005b3480156101fa57600080fd5b50610203610bc9565b6040516102109190611026565b60405180910390f35b34801561022557600080fd5b5061022e610bcf565b60405161023b9190611050565b60405180910390f35b34801561025057600080fd5b50610259610bf3565b6040516102669190611026565b60405180910390f35b34801561027b57600080fd5b50610296600480360381019061029191906110af565b610bf9565b005b6000838390506002546102ab919061110b565b9050803410156102f0576040517f08c379a00000000000000000000000000000000000000000000000000000000081526004016102e7906111aa565b60405180910390fd5b3373ffffffffffffffffffffffffffffffffffffffff167f1661783278386a03d803b9eb29b630464da6b8bd7c6926ebb68b9988deb0a9078585854260405161033c9493929190611245565b60405180910390a250505050565b6000803373ffffffffffffffffffffffffffffffffffffffff1673ffffffffffffffffffffffffffffffffffffffff16815260200190815260200160002060009054906101000a900460ff166103d5576040517f08c379a00000000000000000000000000000000000000000000000000000000081526004016103cc906112d1565b60405180910390fd5b8060028190555050565b6000803373ffffffffffffffffffffffffffffffffffffffff1673ffffffffffffffffffffffffffffffffffffffff16815260200190815260200160002060009054906101000a900460ff1661046a576040517f08c379a0000000000000000000000000000000000000000000000000000000008152600401610461906112d1565b60405180910390fd5b6000808273ffffffffffffffffffffffffffffffffffffffff1673ffffffffffffffffffffffffffffffffffffffff16815260200190815260200160002060009054906101000a900460ff166104f5576040517f08c379a00000000000000000000000000000000000000000000000000000000081526004016104ec906112d1565b60405180910390fd5b8073ffffffffffffffffffffffffffffffffffffffff163373ffffffffffffffffffffffffffffffffffffffff1603610563576040517f08c379a000000000000000000000000000000000000000000000000000000000815260040161055a9061133d565b60405180910390fd5b7f000000000000000000000000000000000000000000000000000000000000000073ffffffffffffffffffffffffffffffffffffffff168173ffffffffffffffffffffffffffffffffffffffff16036105f1576040517f08c379a00000000000000000000000000000000000000000000000000000000081526004016105e8906113a9565b60405180910390fd5b60008060008373ffffffffffffffffffffffffffffffffffffffff1673ffffffffffffffffffffffffffffffffffffffff16815260200190815260200160002060006101000a81548160ff0219169083151502179055508073ffffffffffffffffffffffffffffffffffffffff167fa0726c73cf6ad18ddb855ba65d1ddd4d7fd37d320f4e52f6b154c13d386f5fd94260405161068e9190611026565b60405180910390a250565b6001543410156106de576040517f08c379a00000000000000000000000000000000000000000000000000000000081526004016106d5906111aa565b60405180910390fd5b823373ffffffffffffffffffffffffffffffffffffffff167f02a3d66c2ec7885d7a529fcedca9c56be8f0d0ff45f2413129cabd2b81bbcdb084844260405161072993929190611416565b60405180910390a3505050565b60006020528060005260406000206000915054906101000a900460ff1681565b6000803373ffffffffffffffffffffffffffffffffffffffff1673ffffffffffffffffffffffffffffffffffffffff16815260200190815260200160002060009054906101000a900460ff166107e1576040517f08c379a00000000000000000000000000000000000000000000000000000000081526004016107d8906112d1565b60405180910390fd5b600073ffffffffffffffffffffffffffffffffffffffff168173ffffffffffffffffffffffffffffffffffffffff1603610850576040517f08c379a000000000000000000000000000000000000000000000000000000000815260040161084790611494565b60405180910390fd5b600047905060008273ffffffffffffffffffffffffffffffffffffffff168260405161087b906114e5565b60006040518083038185875af1925050503d80600081146108b8576040519150601f19603f3d011682016040523d82523d6000602084013e6108bd565b606091505b5050905080610901576040517f08c379a00000000000000000000000000000000000000000000000000000000081526004016108f890611546565b60405180910390fd5b505050565b6000803373ffffffffffffffffffffffffffffffffffffffff1673ffffffffffffffffffffffffffffffffffffffff16815260200190815260200160002060009054906101000a900460ff16610991576040517f08c379a0000000000000000000000000000000000000000000000000000000008152600401610988906112d1565b60405180910390fd5b8060018190555050565b6000803373ffffffffffffffffffffffffffffffffffffffff1673ffffffffffffffffffffffffffffffffffffffff16815260200190815260200160002060009054906101000a900460ff16610a26576040517f08c379a0000000000000000000000000000000000000000000000000000000008152600401610a1d906112d1565b60405180910390fd5b600073ffffffffffffffffffffffffffffffffffffffff168173ffffffffffffffffffffffffffffffffffffffff1603610a95576040517f08c379a0000000000000000000000000000000000000000000000000000000008152600401610a8c906115b2565b60405180910390fd5b6000808273ffffffffffffffffffffffffffffffffffffffff1673ffffffffffffffffffffffffffffffffffffffff16815260200190815260200160002060009054906101000a900460ff1615610b21576040517f08c379a0000000000000000000000000000000000000000000000000000000008152600401610b189061161e565b60405180910390fd5b60016000808373ffffffffffffffffffffffffffffffffffffffff1673ffffffffffffffffffffffffffffffffffffffff16815260200190815260200160002060006101000a81548160ff0219169083151502179055508073ffffffffffffffffffffffffffffffffffffffff167f723c2b747529ca7f5eb53a74808f4a8b9bf264f0fc450fd904900151da74548a42604051610bbe9190611026565b60405180910390a250565b60015481565b7f000000000000000000000000000000000000000000000000000000000000000081565b60025481565b6000803373ffffffffffffffffffffffffffffffffffffffff1673ffffffffffffffffffffffffffffffffffffffff16815260200190815260200160002060009054906101000a900460ff16610c84576040517f08c379a0000000000000000000000000000000000000000000000000000000008152600401610c7b906112d1565b60405180910390fd5b3373ffffffffffffffffffffffffffffffffffffffff167f83f5ee055636a7446da584885bc3a3be5f1d93ea2facea2337dcb46eed4d25898242604051610ccc92919061164d565b60405180910390a250565b600080fd5b600080fd5b600080fd5b600080fd5b600080fd5b60008083601f840112610d0657610d05610ce1565b5b8235905067ffffffffffffffff811115610d2357610d22610ce6565b5b602083019150836020820283011115610d3f57610d3e610ceb565b5b9250929050565b60008115159050919050565b610d5b81610d46565b8114610d6657600080fd5b50565b600081359050610d7881610d52565b92915050565b600080600060408486031215610d9757610d96610cd7565b5b600084013567ffffffffffffffff811115610db557610db4610cdc565b5b610dc186828701610cf0565b93509350506020610dd486828701610d69565b9150509250925092565b6000819050919050565b610df181610dde565b8114610dfc57600080fd5b50565b600081359050610e0e81610de8565b92915050565b600060208284031215610e2a57610e29610cd7565b5b6000610e3884828501610dff565b91505092915050565b600073ffffffffffffffffffffffffffffffffffffffff82169050919050565b6000610e6c82610e41565b9050919050565b610e7c81610e61565b8114610e8757600080fd5b50565b600081359050610e9981610e73565b92915050565b600060208284031215610eb557610eb4610cd7565b5b6000610ec384828501610e8a565b91505092915050565b60008083601f840112610ee257610ee1610ce1565b5b8235905067ffffffffffffffff811115610eff57610efe610ce6565b5b602083019150836001820283011115610f1b57610f1a610ceb565b5b9250929050565b600080600060408486031215610f3b57610f3a610cd7565b5b6000610f4986828701610dff565b935050602084013567ffffffffffffffff811115610f6a57610f69610cdc565b5b610f7686828701610ecc565b92509250509250925092565b610f8b81610d46565b82525050565b6000602082019050610fa66000830184610f82565b92915050565b6000610fb782610e41565b9050919050565b610fc781610fac565b8114610fd257600080fd5b50565b600081359050610fe481610fbe565b92915050565b60006020828403121561100057610fff610cd7565b5b600061100e84828501610fd5565b91505092915050565b61102081610dde565b82525050565b600060208201905061103b6000830184611017565b92915050565b61104a81610e61565b82525050565b60006020820190506110656000830184611041565b92915050565b60006bffffffffffffffffffffffff82169050919050565b61108c8161106b565b811461109757600080fd5b50565b6000813590506110a981611083565b92915050565b6000602082840312156110c5576110c4610cd7565b5b60006110d38482850161109a565b91505092915050565b7f4e487b7100000000000000000000000000000000000000000000000000000000600052601160045260246000fd5b600061111682610dde565b915061112183610dde565b925082820261112f81610dde565b91508282048414831517611146576111456110dc565b5b5092915050565b600082825260208201905092915050565b7f496e73756666696369656e742066656500000000000000000000000000000000600082015250565b600061119460108361114d565b915061119f8261115e565b602082019050919050565b600060208201905081810360008301526111c381611187565b9050919050565b600082825260208201905092915050565b600080fd5b82818337505050565b60006111f583856111ca565b93507f07ffffffffffffffffffffffffffffffffffffffffffffffffffffffffffffff831115611228576112276111db565b5b6020830292506112398385846111e0565b82840190509392505050565b600060608201905081810360008301526112608186886111e9565b905061126f6020830185610f82565b61127c6040830184611017565b95945050505050565b7f4e6f7420616e2061646d696e0000000000000000000000000000000000000000600082015250565b60006112bb600c8361114d565b91506112c682611285565b602082019050919050565b600060208201905081810360008301526112ea816112ae565b9050919050565b7f43616e6e6f742072656d6f766520796f757273656c6600000000000000000000600082015250565b600061132760168361114d565b9150611332826112f1565b602082019050919050565b600060208201905081810360008301526113568161131a565b9050919050565b7f43616e6e6f742072656d6f766520636f6e7472616374206f776e657200000000600082015250565b6000611393601c8361114d565b915061139e8261135d565b602082019050919050565b600060208201905081810360008301526113c281611386565b9050919050565b82818337600083830152505050565b6000601f19601f8301169050919050565b60006113f5838561114d565b93506114028385846113c9565b61140b836113d8565b840190509392505050565b600060408201905081810360008301526114318185876113e9565b90506114406020830184611017565b949350505050565b7f496e76616c696420726563697069656e74000000000000000000000000000000600082015250565b600061147e60118361114d565b915061148982611448565b602082019050919050565b600060208201905081810360008301526114ad81611471565b9050919050565b600081905092915050565b50565b60006114cf6000836114b4565b91506114da826114bf565b600082019050919050565b60006114f0826114c2565b9150819050919050565b7f5472616e73666572206661696c65640000000000000000000000000000000000600082015250565b6000611530600f8361114d565b915061153b826114fa565b602082019050919050565b6000602082019050818103600083015261155f81611523565b9050919050565b7f496e76616c696420616464726573730000000000000000000000000000000000600082015250565b600061159c600f8361114d565b91506115a782611566565b602082019050919050565b600060208201905081810360008301526115cb8161158f565b9050919050565b7f416c726561647920616e2061646d696e00000000000000000000000000000000600082015250565b600061160860108361114d565b9150611613826115d2565b602082019050919050565b60006020820190508181036000830152611637816115fb565b9050919050565b6116478161106b565b82525050565b6000604082019050611662600083018561163e565b61166f6020830184611017565b939250505056fea2646970667358221220e0d6d3ba90cfee7b242f549f97cf37ef16aaa48ff0dc00b1aad4ebc34f39546064736f6c63430008140033",
  "linkReferences": {},
  "deployedLinkReferences": {}
}