{
  "_format": "hh-sol-artifact-1",
  "contractName": "NFTBurnBridge",
  "address": "0x088Be3300dCD8Fb21cfd4c488371E93bE7370AFb",
  "sourceName": "contracts/NFTBurnBridge.sol",
  "abi": [
    {
      "inputs": [
        {
          "internalType": "address",
          "name": "_magicEdenContract",
          "type": "address"
        }
      ],
      "stateMutability": "nonpayable",
      "type": "constructor"
    },
    {
      "inputs": [],
      "name": "AlreadyMinted",
      "type": "error"
    },
    {
      "inputs": [
        {
          "internalType": "uint256",
          "name": "tokenId",
          "type": "uint256"
        },
        {
          "internalType": "string",
          "name": "reason",
          "type": "string"
        }
      ],
      "name": "BulkBurnFailed",
      "type": "error"
    },
    {
      "inputs": [],
      "name": "EmptyTokenList",
      "type": "error"
    },
    {
      "inputs": [],
      "name": "EnforcedPause",
      "type": "error"
    },
    {
      "inputs": [],
      "name": "ExpectedPause",
      "type": "error"
    },
    {
      "inputs": [],
      "name": "InvalidBurnId",
      "type": "error"
    },
    {
      "inputs": [],
      "name": "NotTokenOwnerOrApproved",
      "type": "error"
    },
    {
      "inputs": [
        {
          "internalType": "address",
          "name": "owner",
          "type": "address"
        }
      ],
      "name": "OwnableInvalidOwner",
      "type": "error"
    },
    {
      "inputs": [
        {
          "internalType": "address",
          "name": "account",
          "type": "address"
        }
      ],
      "name": "OwnableUnauthorizedAccount",
      "type": "error"
    },
    {
      "inputs": [],
      "name": "ReentrancyGuardReentrantCall",
      "type": "error"
    },
    {
      "inputs": [],
      "name": "TokenAlreadyBurned",
      "type": "error"
    },
    {
      "inputs": [],
      "name": "UnauthorizedProcessor",
      "type": "error"
    },
    {
      "anonymous": false,
      "inputs": [
        {
          "indexed": false,
          "internalType": "uint256[]",
          "name": "burnIds",
          "type": "uint256[]"
        },
        {
          "indexed": true,
          "internalType": "address",
          "name": "user",
          "type": "address"
        },
        {
          "indexed": false,
          "internalType": "uint256[]",
          "name": "tokenIds",
          "type": "uint256[]"
        },
        {
          "indexed": false,
          "internalType": "uint256",
          "name": "timestamp",
          "type": "uint256"
        }
      ],
      "name": "BulkNFTBurned",
      "type": "event"
    },
    {
      "anonymous": false,
      "inputs": [
        {
          "indexed": true,
          "internalType": "uint256",
          "name": "burnId",
          "type": "uint256"
        },
        {
          "indexed": true,
          "internalType": "address",
          "name": "user",
          "type": "address"
        },
        {
          "indexed": true,
          "internalType": "uint256",
          "name": "tokenId",
          "type": "uint256"
        },
        {
          "indexed": false,
          "internalType": "uint256",
          "name": "timestamp",
          "type": "uint256"
        }
      ],
      "name": "NFTBurned",
      "type": "event"
    },
    {
      "anonymous": false,
      "inputs": [
        {
          "indexed": true,
          "internalType": "uint256",
          "name": "burnId",
          "type": "uint256"
        },
        {
          "indexed": true,
          "internalType": "address",
          "name": "user",
          "type": "address"
        },
        {
          "indexed": true,
          "internalType": "uint256",
          "name": "tokenId",
          "type": "uint256"
        },
        {
          "indexed": false,
          "internalType": "uint256",
          "name": "mintTimestamp",
          "type": "uint256"
        }
      ],
      "name": "NFTMinted",
      "type": "event"
    },
    {
      "anonymous": false,
      "inputs": [
        {
          "indexed": true,
          "internalType": "address",
          "name": "previousOwner",
          "type": "address"
        },
        {
          "indexed": true,
          "internalType": "address",
          "name": "newOwner",
          "type": "address"
        }
      ],
      "name": "OwnershipTransferred",
      "type": "event"
    },
    {
      "anonymous": false,
      "inputs": [
        {
          "indexed": false,
          "internalType": "address",
          "name": "account",
          "type": "address"
        }
      ],
      "name": "Paused",
      "type": "event"
    },
    {
      "anonymous": false,
      "inputs": [
        {
          "indexed": true,
          "internalType": "address",
          "name": "processor",
          "type": "address"
        }
      ],
      "name": "ProcessorAdded",
      "type": "event"
    },
    {
      "anonymous": false,
      "inputs": [
        {
          "indexed": true,
          "internalType": "address",
          "name": "processor",
          "type": "address"
        }
      ],
      "name": "ProcessorRemoved",
      "type": "event"
    },
    {
      "anonymous": false,
      "inputs": [
        {
          "indexed": false,
          "internalType": "address",
          "name": "account",
          "type": "address"
        }
      ],
      "name": "Unpaused",
      "type": "event"
    },
    {
      "inputs": [
        {
          "internalType": "uint256",
          "name": "tokenId",
          "type": "uint256"
        },
        {
          "internalType": "address",
          "name": "user",
          "type": "address"
        }
      ],
      "name": "_burnSingleNFTInternal",
      "outputs": [
        {
          "internalType": "uint256",
          "name": "",
          "type": "uint256"
        }
      ],
      "stateMutability": "nonpayable",
      "type": "function"
    },
    {
      "inputs": [
        {
          "internalType": "address",
          "name": "processor",
          "type": "address"
        }
      ],
      "name": "addProcessor",
      "outputs": [],
      "stateMutability": "nonpayable",
      "type": "function"
    },
    {
      "inputs": [
        {
          "internalType": "address",
          "name": "",
          "type": "address"
        }
      ],
      "name": "authorizedProcessors",
      "outputs": [
        {
          "internalType": "bool",
          "name": "",
          "type": "bool"
        }
      ],
      "stateMutability": "view",
      "type": "function"
    },
    {
      "inputs": [
        {
          "internalType": "uint256[]",
          "name": "burnIds",
          "type": "uint256[]"
        }
      ],
      "name": "batchMarkAsMinted",
      "outputs": [],
      "stateMutability": "nonpayable",
      "type": "function"
    },
    {
      "inputs": [
        {
          "internalType": "uint256[]",
          "name": "tokenIds",
          "type": "uint256[]"
        }
      ],
      "name": "bulkBurnNFTs",
      "outputs": [
        {
          "internalType": "uint256[]",
          "name": "",
          "type": "uint256[]"
        }
      ],
      "stateMutability": "nonpayable",
      "type": "function"
    },
    {
      "inputs": [
        {
          "internalType": "uint256",
          "name": "tokenId",
          "type": "uint256"
        }
      ],
      "name": "burnNFT",
      "outputs": [
        {
          "internalType": "uint256",
          "name": "",
          "type": "uint256"
        }
      ],
      "stateMutability": "nonpayable",
      "type": "function"
    },
    {
      "inputs": [
        {
          "internalType": "uint256",
          "name": "",
          "type": "uint256"
        }
      ],
      "name": "burnRecords",
      "outputs": [
        {
          "internalType": "uint256",
          "name": "burnId",
          "type": "uint256"
        },
        {
          "internalType": "address",
          "name": "user",
          "type": "address"
        },
        {
          "internalType": "uint256",
          "name": "tokenId",
          "type": "uint256"
        },
        {
          "internalType": "uint256",
          "name": "burnTimestamp",
          "type": "uint256"
        },
        {
          "internalType": "enum NFTBurnBridge.BurnStatus",
          "name": "status",
          "type": "uint8"
        },
        {
          "internalType": "uint256",
          "name": "mintTimestamp",
          "type": "uint256"
        }
      ],
      "stateMutability": "view",
      "type": "function"
    },
    {
      "inputs": [
        {
          "internalType": "uint256",
          "name": "burnId",
          "type": "uint256"
        }
      ],
      "name": "emergencyMarkAsMinted",
      "outputs": [],
      "stateMutability": "nonpayable",
      "type": "function"
    },
    {
      "inputs": [
        {
          "internalType": "uint256",
          "name": "burnId",
          "type": "uint256"
        }
      ],
      "name": "getBurnRecord",
      "outputs": [
        {
          "components": [
            {
              "internalType": "uint256",
              "name": "burnId",
              "type": "uint256"
            },
            {
              "internalType": "address",
              "name": "user",
              "type": "address"
            },
            {
              "internalType": "uint256",
              "name": "tokenId",
              "type": "uint256"
            },
            {
              "internalType": "uint256",
              "name": "burnTimestamp",
              "type": "uint256"
            },
            {
              "internalType": "enum NFTBurnBridge.BurnStatus",
              "name": "status",
              "type": "uint8"
            },
            {
              "internalType": "uint256",
              "name": "mintTimestamp",
              "type": "uint256"
            }
          ],
          "internalType": "struct NFTBurnBridge.BurnRecord",
          "name": "",
          "type": "tuple"
        }
      ],
      "stateMutability": "view",
      "type": "function"
    },
    {
      "inputs": [],
      "name": "getBurnStatistics",
      "outputs": [
        {
          "internalType": "uint256",
          "name": "burned",
          "type": "uint256"
        },
        {
          "internalType": "uint256",
          "name": "minted",
          "type": "uint256"
        },
        {
          "internalType": "uint256",
          "name": "total",
          "type": "uint256"
        }
      ],
      "stateMutability": "view",
      "type": "function"
    },
    {
      "inputs": [],
      "name": "getPendingBurnRecords",
      "outputs": [
        {
          "components": [
            {
              "internalType": "uint256",
              "name": "burnId",
              "type": "uint256"
            },
            {
              "internalType": "address",
              "name": "user",
              "type": "address"
            },
            {
              "internalType": "uint256",
              "name": "tokenId",
              "type": "uint256"
            },
            {
              "internalType": "uint256",
              "name": "burnTimestamp",
              "type": "uint256"
            },
            {
              "internalType": "enum NFTBurnBridge.BurnStatus",
              "name": "status",
              "type": "uint8"
            },
            {
              "internalType": "uint256",
              "name": "mintTimestamp",
              "type": "uint256"
            }
          ],
          "internalType": "struct NFTBurnBridge.BurnRecord[]",
          "name": "",
          "type": "tuple[]"
        }
      ],
      "stateMutability": "view",
      "type": "function"
    },
    {
      "inputs": [],
      "name": "getPendingBurns",
      "outputs": [
        {
          "internalType": "uint256[]",
          "name": "",
          "type": "uint256[]"
        }
      ],
      "stateMutability": "view",
      "type": "function"
    },
    {
      "inputs": [
        {
          "internalType": "address",
          "name": "user",
          "type": "address"
        },
        {
          "internalType": "enum NFTBurnBridge.BurnStatus",
          "name": "status",
          "type": "uint8"
        }
      ],
      "name": "getUserBurnCountByStatus",
      "outputs": [
        {
          "internalType": "uint256",
          "name": "",
          "type": "uint256"
        }
      ],
      "stateMutability": "view",
      "type": "function"
    },
    {
      "inputs": [
        {
          "internalType": "address",
          "name": "user",
          "type": "address"
        }
      ],
      "name": "getUserBurnRecords",
      "outputs": [
        {
          "components": [
            {
              "internalType": "uint256",
              "name": "burnId",
              "type": "uint256"
            },
            {
              "internalType": "address",
              "name": "user",
              "type": "address"
            },
            {
              "internalType": "uint256",
              "name": "tokenId",
              "type": "uint256"
            },
            {
              "internalType": "uint256",
              "name": "burnTimestamp",
              "type": "uint256"
            },
            {
              "internalType": "enum NFTBurnBridge.BurnStatus",
              "name": "status",
              "type": "uint8"
            },
            {
              "internalType": "uint256",
              "name": "mintTimestamp",
              "type": "uint256"
            }
          ],
          "internalType": "struct NFTBurnBridge.BurnRecord[]",
          "name": "",
          "type": "tuple[]"
        }
      ],
      "stateMutability": "view",
      "type": "function"
    },
    {
      "inputs": [
        {
          "internalType": "address",
          "name": "user",
          "type": "address"
        }
      ],
      "name": "getUserBurns",
      "outputs": [
        {
          "internalType": "uint256[]",
          "name": "",
          "type": "uint256[]"
        }
      ],
      "stateMutability": "view",
      "type": "function"
    },
    {
      "inputs": [
        {
          "internalType": "address",
          "name": "user",
          "type": "address"
        }
      ],
      "name": "getUserPendingBurns",
      "outputs": [
        {
          "components": [
            {
              "internalType": "uint256",
              "name": "burnId",
              "type": "uint256"
            },
            {
              "internalType": "address",
              "name": "user",
              "type": "address"
            },
            {
              "internalType": "uint256",
              "name": "tokenId",
              "type": "uint256"
            },
            {
              "internalType": "uint256",
              "name": "burnTimestamp",
              "type": "uint256"
            },
            {
              "internalType": "enum NFTBurnBridge.BurnStatus",
              "name": "status",
              "type": "uint8"
            },
            {
              "internalType": "uint256",
              "name": "mintTimestamp",
              "type": "uint256"
            }
          ],
          "internalType": "struct NFTBurnBridge.BurnRecord[]",
          "name": "",
          "type": "tuple[]"
        }
      ],
      "stateMutability": "view",
      "type": "function"
    },
    {
      "inputs": [
        {
          "internalType": "address",
          "name": "user",
          "type": "address"
        }
      ],
      "name": "hasPendingBurns",
      "outputs": [
        {
          "internalType": "bool",
          "name": "",
          "type": "bool"
        }
      ],
      "stateMutability": "view",
      "type": "function"
    },
    {
      "inputs": [],
      "name": "magicEdenContract",
      "outputs": [
        {
          "internalType": "contract IMagicEdenNFT",
          "name": "",
          "type": "address"
        }
      ],
      "stateMutability": "view",
      "type": "function"
    },
    {
      "inputs": [
        {
          "internalType": "uint256",
          "name": "burnId",
          "type": "uint256"
        }
      ],
      "name": "markAsMinted",
      "outputs": [],
      "stateMutability": "nonpayable",
      "type": "function"
    },
    {
      "inputs": [],
      "name": "owner",
      "outputs": [
        {
          "internalType": "address",
          "name": "",
          "type": "address"
        }
      ],
      "stateMutability": "view",
      "type": "function"
    },
    {
      "inputs": [],
      "name": "pause",
      "outputs": [],
      "stateMutability": "nonpayable",
      "type": "function"
    },
    {
      "inputs": [],
      "name": "paused",
      "outputs": [
        {
          "internalType": "bool",
          "name": "",
          "type": "bool"
        }
      ],
      "stateMutability": "view",
      "type": "function"
    },
    {
      "inputs": [
        {
          "internalType": "uint256",
          "name": "",
          "type": "uint256"
        }
      ],
      "name": "pendingBurns",
      "outputs": [
        {
          "internalType": "uint256",
          "name": "",
          "type": "uint256"
        }
      ],
      "stateMutability": "view",
      "type": "function"
    },
    {
      "inputs": [
        {
          "internalType": "address",
          "name": "processor",
          "type": "address"
        }
      ],
      "name": "removeProcessor",
      "outputs": [],
      "stateMutability": "nonpayable",
      "type": "function"
    },
    {
      "inputs": [],
      "name": "renounceOwnership",
      "outputs": [],
      "stateMutability": "nonpayable",
      "type": "function"
    },
    {
      "inputs": [
        {
          "internalType": "uint256",
          "name": "",
          "type": "uint256"
        }
      ],
      "name": "tokenBurned",
      "outputs": [
        {
          "internalType": "bool",
          "name": "",
          "type": "bool"
        }
      ],
      "stateMutability": "view",
      "type": "function"
    },
    {
      "inputs": [
        {
          "internalType": "address",
          "name": "newOwner",
          "type": "address"
        }
      ],
      "name": "transferOwnership",
      "outputs": [],
      "stateMutability": "nonpayable",
      "type": "function"
    },
    {
      "inputs": [],
      "name": "unpause",
      "outputs": [],
      "stateMutability": "nonpayable",
      "type": "function"
    },
    {
      "inputs": [
        {
          "internalType": "address",
          "name": "",
          "type": "address"
        },
        {
          "internalType": "uint256",
          "name": "",
          "type": "uint256"
        }
      ],
      "name": "userBurns",
      "outputs": [
        {
          "internalType": "uint256",
          "name": "",
          "type": "uint256"
        }
      ],
      "stateMutability": "view",
      "type": "function"
    }
  ],
  "bytecode": "0x60a060405260016003553480156200001657600080fd5b50604051620037723803806200377283398181016040528101906200003c91906200024f565b33600073ffffffffffffffffffffffffffffffffffffffff168173ffffffffffffffffffffffffffffffffffffffff1603620000b25760006040517f1e4fbdf7000000000000000000000000000000000000000000000000000000008152600401620000a9919062000292565b60405180910390fd5b620000c3816200012160201b60201c565b50600180819055506000600260006101000a81548160ff0219169083151502179055508073ffffffffffffffffffffffffffffffffffffffff1660808173ffffffffffffffffffffffffffffffffffffffff168152505050620002af565b60008060009054906101000a900473ffffffffffffffffffffffffffffffffffffffff169050816000806101000a81548173ffffffffffffffffffffffffffffffffffffffff021916908373ffffffffffffffffffffffffffffffffffffffff1602179055508173ffffffffffffffffffffffffffffffffffffffff168173ffffffffffffffffffffffffffffffffffffffff167f8be0079c531659141344cd1fd0a4f28419497f9722a3daafe3b4186f6b6457e060405160405180910390a35050565b600080fd5b600073ffffffffffffffffffffffffffffffffffffffff82169050919050565b60006200021782620001ea565b9050919050565b62000229816200020a565b81146200023557600080fd5b50565b60008151905062000249816200021e565b92915050565b600060208284031215620002685762000267620001e5565b5b6000620002788482850162000238565b91505092915050565b6200028c816200020a565b82525050565b6000602082019050620002a9600083018462000281565b92915050565b60805161348b620002e76000396000818161165701528181611e7601528181611f4701528181611fe501526122f0015261348b6000f3fe608060405234801561001057600080fd5b50600436106101cf5760003560e01c8063715018a611610104578063b136365c116100a2578063cdaf1c6c11610071578063cdaf1c6c1461056f578063d147938c1461059f578063d2ef4f3b146105bd578063f2fde38b146105d9576101cf565b8063b136365c146104ba578063b38723f8146104ea578063bc6c7dd51461051f578063ca4e143d1461053f576101cf565b80638584ad12116100de5780638584ad12146104325780638755e3161461044e5780638da5cb5b1461047e578063aea6219f1461049c576101cf565b8063715018a6146103ee578063781c065c146103f85780638456cb5914610428576101cf565b80634ac647391161017157806361417a161161014b57806361417a1614610354578063693be48914610370578063697480ff146103a05780636aa7902f146103be576101cf565b80634ac64739146102ea578063523143641461031a5780635c975abb14610336576101cf565b806325460753116101ad57806325460753146102645780632890e0d7146102805780633cafc8b1146102b05780633f4ba83a146102e0576101cf565b80630a2d8155146101d45780630fbc58f5146102045780631f6d640314610234575b600080fd5b6101ee60048036038101906101e9919061278d565b6105f5565b6040516101fb9190612983565b60405180910390f35b61021e6004803603810190610219919061278d565b61092e565b60405161022b9190612a54565b60405180910390f35b61024e60048036038101906102499190612a9b565b6109c5565b60405161025b9190612aea565b60405180910390f35b61027e6004803603810190610279919061278d565b610afb565b005b61029a60048036038101906102959190612b31565b610ba1565b6040516102a79190612aea565b60405180910390f35b6102ca60048036038101906102c59190612b5e565b610bcc565b6040516102d79190612aea565b60405180910390f35b6102e8610c4e565b005b61030460048036038101906102ff9190612b31565b610c60565b6040516103119190612aea565b60405180910390f35b610334600480360381019061032f9190612b31565b610c84565b005b61033e610ed3565b60405161034b9190612bb9565b60405180910390f35b61036e60048036038101906103699190612b31565b610eea565b005b61038a60048036038101906103859190612b31565b61107d565b6040516103979190612bb9565b60405180910390f35b6103a861109d565b6040516103b59190612a54565b60405180910390f35b6103d860048036038101906103d39190612c39565b6110f5565b6040516103e59190612a54565b60405180910390f35b6103f66113a8565b005b610412600480360381019061040d919061278d565b6113bc565b60405161041f9190612bb9565b60405180910390f35b6104306113dc565b005b61044c60048036038101906104479190612c39565b6113ee565b005b6104686004803603810190610463919061278d565b6114fa565b6040516104759190612bb9565b60405180910390f35b61048661162c565b6040516104939190612c95565b60405180910390f35b6104a4611655565b6040516104b19190612d0f565b60405180910390f35b6104d460048036038101906104cf9190612d2a565b611679565b6040516104e19190612aea565b60405180910390f35b61050460048036038101906104ff9190612b31565b6116aa565b60405161051696959493929190612d79565b60405180910390f35b610527611713565b60405161053693929190612dda565b60405180910390f35b6105596004803603810190610554919061278d565b611744565b6040516105669190612983565b60405180910390f35b61058960048036038101906105849190612b31565b61196a565b6040516105969190612e8c565b60405180910390f35b6105a7611a9a565b6040516105b49190612983565b60405180910390f35b6105d760048036038101906105d2919061278d565b611c37565b005b6105f360048036038101906105ee919061278d565b611cdd565b005b60606000600560008473ffffffffffffffffffffffffffffffffffffffff1673ffffffffffffffffffffffffffffffffffffffff16815260200190815260200160002080548060200260200160405190810160405280929190818152602001828054801561068257602002820191906000526020600020905b81548152602001906001019080831161066e575b505050505090506000805b825181101561072157600060018111156106aa576106a961280e565b5b600460008584815181106106c1576106c0612ea7565b5b6020026020010151815260200190815260200160002060040160009054906101000a900460ff1660018111156106fa576106f961280e565b5b0361070e57818061070a90612f05565b9250505b808061071990612f05565b91505061068d565b5060008167ffffffffffffffff81111561073e5761073d612f4d565b5b60405190808252806020026020018201604052801561077757816020015b6107646126bd565b81526020019060019003908161075c5790505b5090506000805b8451811015610921576000600181111561079b5761079a61280e565b5b600460008784815181106107b2576107b1612ea7565b5b6020026020010151815260200190815260200160002060040160009054906101000a900460ff1660018111156107eb576107ea61280e565b5b0361090e576004600086838151811061080757610806612ea7565b5b602002602001015181526020019081526020016000206040518060c0016040529081600082015481526020016001820160009054906101000a900473ffffffffffffffffffffffffffffffffffffffff1673ffffffffffffffffffffffffffffffffffffffff1673ffffffffffffffffffffffffffffffffffffffff16815260200160028201548152602001600382015481526020016004820160009054906101000a900460ff1660018111156108c1576108c061280e565b5b60018111156108d3576108d261280e565b5b81526020016005820154815250508383815181106108f4576108f3612ea7565b5b6020026020010181905250818061090a90612f05565b9250505b808061091990612f05565b91505061077e565b5081945050505050919050565b6060600560008373ffffffffffffffffffffffffffffffffffffffff1673ffffffffffffffffffffffffffffffffffffffff1681526020019081526020016000208054806020026020016040519081016040528092919081815260200182805480156109b957602002820191906000526020600020905b8154815260200190600101908083116109a5575b50505050509050919050565b600080600560008573ffffffffffffffffffffffffffffffffffffffff1673ffffffffffffffffffffffffffffffffffffffff168152602001908152602001600020805480602002602001604051908101604052809291908181526020018280548015610a5157602002820191906000526020600020905b815481526020019060010190808311610a3d575b505050505090506000805b8251811015610aef57846001811115610a7857610a7761280e565b5b60046000858481518110610a8f57610a8e612ea7565b5b6020026020010151815260200190815260200160002060040160009054906101000a900460ff166001811115610ac857610ac761280e565b5b03610adc578180610ad890612f05565b9250505b8080610ae790612f05565b915050610a5c565b50809250505092915050565b610b03611d63565b6001600960008373ffffffffffffffffffffffffffffffffffffffff1673ffffffffffffffffffffffffffffffffffffffff16815260200190815260200160002060006101000a81548160ff0219169083151502179055508073ffffffffffffffffffffffffffffffffffffffff167f05c1b3ccb9c2d46f702e834ef4d1089736770e1dc99594e4eed7d32156c5809960405160405180910390a250565b6000610bab611dea565b610bb3611e30565b610bbd8233611e71565b9050610bc7612409565b919050565b60003073ffffffffffffffffffffffffffffffffffffffff163373ffffffffffffffffffffffffffffffffffffffff1614610c3c576040517f08c379a0000000000000000000000000000000000000000000000000000000008152600401610c3390612fd9565b60405180910390fd5b610c468383611e71565b905092915050565b610c56611d63565b610c5e612412565b565b60078181548110610c7057600080fd5b906000526020600020016000915090505481565b600960003373ffffffffffffffffffffffffffffffffffffffff1673ffffffffffffffffffffffffffffffffffffffff16815260200190815260200160002060009054906101000a900460ff16158015610d115750610ce161162c565b73ffffffffffffffffffffffffffffffffffffffff163373ffffffffffffffffffffffffffffffffffffffff1614155b15610d48576040517fe87a31b200000000000000000000000000000000000000000000000000000000815260040160405180910390fd5b806000811480610d5a57506003548110155b15610d91576040517f9c22d98500000000000000000000000000000000000000000000000000000000815260040160405180910390fd5b600060046000848152602001908152602001600020905060006001811115610dbc57610dbb61280e565b5b8160040160009054906101000a900460ff166001811115610de057610ddf61280e565b5b14610e17576040517fddefae2800000000000000000000000000000000000000000000000000000000815260040160405180910390fd5b60018160040160006101000a81548160ff02191690836001811115610e3f57610e3e61280e565b5b0217905550428160050181905550610e5683612475565b80600201548160010160009054906101000a900473ffffffffffffffffffffffffffffffffffffffff1673ffffffffffffffffffffffffffffffffffffffff16847f0713ae16a171f65c6877fd4bff12d9157605b607ef798a53c771cbadd0892ff442604051610ec69190612aea565b60405180910390a4505050565b6000600260009054906101000a900460ff16905090565b610ef2611d63565b806000811480610f0457506003548110155b15610f3b576040517f9c22d98500000000000000000000000000000000000000000000000000000000815260040160405180910390fd5b600060046000848152602001908152602001600020905060006001811115610f6657610f6561280e565b5b8160040160009054906101000a900460ff166001811115610f8a57610f8961280e565b5b14610fc1576040517fddefae2800000000000000000000000000000000000000000000000000000000815260040160405180910390fd5b60018160040160006101000a81548160ff02191690836001811115610fe957610fe861280e565b5b021790555042816005018190555061100083612475565b80600201548160010160009054906101000a900473ffffffffffffffffffffffffffffffffffffffff1673ffffffffffffffffffffffffffffffffffffffff16847f0713ae16a171f65c6877fd4bff12d9157605b607ef798a53c771cbadd0892ff4426040516110709190612aea565b60405180910390a4505050565b60066020528060005260406000206000915054906101000a900460ff1681565b606060078054806020026020016040519081016040528092919081815260200182805480156110eb57602002820191906000526020600020905b8154815260200190600101908083116110d7575b5050505050905090565b60606110ff611dea565b611107611e30565b60008383905003611144576040517f36e7020f00000000000000000000000000000000000000000000000000000000815260040160405180910390fd5b60008383905067ffffffffffffffff81111561116357611162612f4d565b5b6040519080825280602002602001820160405280156111915781602001602082028036833780820191505090505b50905060005b84849050811015611341573073ffffffffffffffffffffffffffffffffffffffff16633cafc8b18686848181106111d1576111d0612ea7565b5b90506020020135336040518363ffffffff1660e01b81526004016111f6929190612ff9565b6020604051808303816000875af192505050801561123257506040513d601f19601f8201168201806040525081019061122f9190613037565b60015b61130d5761123e613071565b806308c379a0036112b557506112526130d5565b8061125d57506112b7565b8585838181106112705761126f612ea7565b5b90506020020135816040517fd3a0a6cb0000000000000000000000000000000000000000000000000000000081526004016112ac9291906131d3565b60405180910390fd5b505b8484828181106112ca576112c9612ea7565b5b905060200201356040517fd3a0a6cb000000000000000000000000000000000000000000000000000000008152600401611304919061324f565b60405180910390fd5b8083838151811061132157611320612ea7565b5b60200260200101818152505050808061133990612f05565b915050611197565b503373ffffffffffffffffffffffffffffffffffffffff167f564fc549387b7f4ebb34daf23b562845660161bea2b1fe69505dc2b53d4fd5cc8286864260405161138e94939291906132e7565b60405180910390a2809150506113a2612409565b92915050565b6113b0611d63565b6113ba600061254e565b565b60096020528060005260406000206000915054906101000a900460ff1681565b6113e4611d63565b6113ec612612565b565b600960003373ffffffffffffffffffffffffffffffffffffffff1673ffffffffffffffffffffffffffffffffffffffff16815260200190815260200160002060009054906101000a900460ff1615801561147b575061144b61162c565b73ffffffffffffffffffffffffffffffffffffffff163373ffffffffffffffffffffffffffffffffffffffff1614155b156114b2576040517fe87a31b200000000000000000000000000000000000000000000000000000000815260040160405180910390fd5b60005b828290508110156114f5576114e28383838181106114d6576114d5612ea7565b5b90506020020135610c84565b80806114ed90612f05565b9150506114b5565b505050565b600080600560008473ffffffffffffffffffffffffffffffffffffffff1673ffffffffffffffffffffffffffffffffffffffff16815260200190815260200160002080548060200260200160405190810160405280929190818152602001828054801561158657602002820191906000526020600020905b815481526020019060010190808311611572575b5050505050905060005b815181101561162057600060018111156115ad576115ac61280e565b5b600460008484815181106115c4576115c3612ea7565b5b6020026020010151815260200190815260200160002060040160009054906101000a900460ff1660018111156115fd576115fc61280e565b5b0361160d57600192505050611627565b808061161890612f05565b915050611590565b5060009150505b919050565b60008060009054906101000a900473ffffffffffffffffffffffffffffffffffffffff16905090565b7f000000000000000000000000000000000000000000000000000000000000000081565b6005602052816000526040600020818154811061169557600080fd5b90600052602060002001600091509150505481565b60046020528060005260406000206000915090508060000154908060010160009054906101000a900473ffffffffffffffffffffffffffffffffffffffff16908060020154908060030154908060040160009054906101000a900460ff16908060050154905086565b60008060006007805490509250600160035461172f919061332e565b9050828161173d919061332e565b9150909192565b60606000600560008473ffffffffffffffffffffffffffffffffffffffff1673ffffffffffffffffffffffffffffffffffffffff1681526020019081526020016000208054806020026020016040519081016040528092919081815260200182805480156117d157602002820191906000526020600020905b8154815260200190600101908083116117bd575b505050505090506000815167ffffffffffffffff8111156117f5576117f4612f4d565b5b60405190808252806020026020018201604052801561182e57816020015b61181b6126bd565b8152602001906001900390816118135790505b50905060005b825181101561195f576004600084838151811061185457611853612ea7565b5b602002602001015181526020019081526020016000206040518060c0016040529081600082015481526020016001820160009054906101000a900473ffffffffffffffffffffffffffffffffffffffff1673ffffffffffffffffffffffffffffffffffffffff1673ffffffffffffffffffffffffffffffffffffffff16815260200160028201548152602001600382015481526020016004820160009054906101000a900460ff16600181111561190e5761190d61280e565b5b60018111156119205761191f61280e565b5b815260200160058201548152505082828151811061194157611940612ea7565b5b6020026020010181905250808061195790612f05565b915050611834565b508092505050919050565b6119726126bd565b81600081148061198457506003548110155b156119bb576040517f9c22d98500000000000000000000000000000000000000000000000000000000815260040160405180910390fd5b600460008481526020019081526020016000206040518060c0016040529081600082015481526020016001820160009054906101000a900473ffffffffffffffffffffffffffffffffffffffff1673ffffffffffffffffffffffffffffffffffffffff1673ffffffffffffffffffffffffffffffffffffffff16815260200160028201548152602001600382015481526020016004820160009054906101000a900460ff166001811115611a7257611a7161280e565b5b6001811115611a8457611a8361280e565b5b8152602001600582015481525050915050919050565b6060600060078054905067ffffffffffffffff811115611abd57611abc612f4d565b5b604051908082528060200260200182016040528015611af657816020015b611ae36126bd565b815260200190600190039081611adb5790505b50905060005b600780549050811015611c2f576004600060078381548110611b2157611b20612ea7565b5b906000526020600020015481526020019081526020016000206040518060c0016040529081600082015481526020016001820160009054906101000a900473ffffffffffffffffffffffffffffffffffffffff1673ffffffffffffffffffffffffffffffffffffffff1673ffffffffffffffffffffffffffffffffffffffff16815260200160028201548152602001600382015481526020016004820160009054906101000a900460ff166001811115611bde57611bdd61280e565b5b6001811115611bf057611bef61280e565b5b8152602001600582015481525050828281518110611c1157611c10612ea7565b5b60200260200101819052508080611c2790612f05565b915050611afc565b508091505090565b611c3f611d63565b6000600960008373ffffffffffffffffffffffffffffffffffffffff1673ffffffffffffffffffffffffffffffffffffffff16815260200190815260200160002060006101000a81548160ff0219169083151502179055508073ffffffffffffffffffffffffffffffffffffffff167fbcd349bbef1d62ad73e4f031a0ef1fa29c49ddcd0bac9f7a86bb4a425e03222260405160405180910390a250565b611ce5611d63565b600073ffffffffffffffffffffffffffffffffffffffff168173ffffffffffffffffffffffffffffffffffffffff1603611d575760006040517f1e4fbdf7000000000000000000000000000000000000000000000000000000008152600401611d4e9190612c95565b60405180910390fd5b611d608161254e565b50565b611d6b612675565b73ffffffffffffffffffffffffffffffffffffffff16611d8961162c565b73ffffffffffffffffffffffffffffffffffffffff1614611de857611dac612675565b6040517f118cdaa7000000000000000000000000000000000000000000000000000000008152600401611ddf9190612c95565b60405180910390fd5b565b600260015403611e26576040517f3ee5aeb500000000000000000000000000000000000000000000000000000000815260040160405180910390fd5b6002600181905550565b611e38610ed3565b15611e6f576040517fd93c066500000000000000000000000000000000000000000000000000000000815260040160405180910390fd5b565b6000807f000000000000000000000000000000000000000000000000000000000000000073ffffffffffffffffffffffffffffffffffffffff16636352211e856040518263ffffffff1660e01b8152600401611ecd9190612aea565b602060405180830381865afa158015611eea573d6000803e3d6000fd5b505050506040513d601f19601f82011682018060405250810190611f0e9190613377565b90508273ffffffffffffffffffffffffffffffffffffffff168173ffffffffffffffffffffffffffffffffffffffff16146120f55760007f000000000000000000000000000000000000000000000000000000000000000073ffffffffffffffffffffffffffffffffffffffff1663081812fc866040518263ffffffff1660e01b8152600401611f9e9190612aea565b602060405180830381865afa158015611fbb573d6000803e3d6000fd5b505050506040513d601f19601f82011682018060405250810190611fdf9190613377565b905060007f000000000000000000000000000000000000000000000000000000000000000073ffffffffffffffffffffffffffffffffffffffff1663e985e9c584876040518363ffffffff1660e01b815260040161203e9291906133a4565b602060405180830381865afa15801561205b573d6000803e3d6000fd5b505050506040513d601f19601f8201168201806040525081019061207f91906133f9565b90508473ffffffffffffffffffffffffffffffffffffffff168273ffffffffffffffffffffffffffffffffffffffff16141580156120bb575080155b156120f2576040517f99b2a73600000000000000000000000000000000000000000000000000000000815260040160405180910390fd5b50505b6006600085815260200190815260200160002060009054906101000a900460ff161561214d576040517f8af5f39600000000000000000000000000000000000000000000000000000000815260040160405180910390fd5b60006003600081548092919061216290612f05565b9190505590506000600460008381526020019081526020016000209050818160000181905550848160010160006101000a81548173ffffffffffffffffffffffffffffffffffffffff021916908373ffffffffffffffffffffffffffffffffffffffff16021790555085816002018190555042816003018190555060008160040160006101000a81548160ff021916908360018111156122055761220461280e565b5b021790555060016006600088815260200190815260200160002060006101000a81548160ff021916908315150217905550600560008673ffffffffffffffffffffffffffffffffffffffff1673ffffffffffffffffffffffffffffffffffffffff168152602001908152602001600020829080600181540180825580915050600190039060005260206000200160009091909190915055600782908060018154018082558091505060019003906000526020600020016000909190919091505560016007805490506122d7919061332e565b60086000848152602001908152602001600020819055507f000000000000000000000000000000000000000000000000000000000000000073ffffffffffffffffffffffffffffffffffffffff166342966c68876040518263ffffffff1660e01b81526004016123479190612aea565b600060405180830381600087803b15801561236157600080fd5b505af1158015612375573d6000803e3d6000fd5b505050508473ffffffffffffffffffffffffffffffffffffffff163373ffffffffffffffffffffffffffffffffffffffff16036123fd57858573ffffffffffffffffffffffffffffffffffffffff16837f46acfa67f80e7c869bfb78803a6b5ad5d67f38d072a79c9ef5978d412bee53ca426040516123f49190612aea565b60405180910390a45b81935050505092915050565b60018081905550565b61241a61267d565b6000600260006101000a81548160ff0219169083151502179055507f5db9ee0a495bf2e6ff9c91a7834c1ba4fdd244a5e8aa4e537bd38aeae4b073aa61245e612675565b60405161246b9190612c95565b60405180910390a1565b600060086000838152602001908152602001600020549050600060016007805490506124a1919061332e565b905080821461250a576000600782815481106124c0576124bf612ea7565b5b9060005260206000200154905080600784815481106124e2576124e1612ea7565b5b9060005260206000200181905550826008600083815260200190815260200160002081905550505b600780548061251c5761251b613426565b5b600190038181906000526020600020016000905590556008600084815260200190815260200160002060009055505050565b60008060009054906101000a900473ffffffffffffffffffffffffffffffffffffffff169050816000806101000a81548173ffffffffffffffffffffffffffffffffffffffff021916908373ffffffffffffffffffffffffffffffffffffffff1602179055508173ffffffffffffffffffffffffffffffffffffffff168173ffffffffffffffffffffffffffffffffffffffff167f8be0079c531659141344cd1fd0a4f28419497f9722a3daafe3b4186f6b6457e060405160405180910390a35050565b61261a611e30565b6001600260006101000a81548160ff0219169083151502179055507f62e78cea01bee320cd4e420270b5ea74000d11b0c9f74754ebdbfc544b05a25861265e612675565b60405161266b9190612c95565b60405180910390a1565b600033905090565b612685610ed3565b6126bb576040517f8dfc202b00000000000000000000000000000000000000000000000000000000815260040160405180910390fd5b565b6040518060c0016040528060008152602001600073ffffffffffffffffffffffffffffffffffffffff16815260200160008152602001600081526020016000600181111561270e5761270d61280e565b5b8152602001600081525090565b6000604051905090565b600080fd5b600080fd5b600073ffffffffffffffffffffffffffffffffffffffff82169050919050565b600061275a8261272f565b9050919050565b61276a8161274f565b811461277557600080fd5b50565b60008135905061278781612761565b92915050565b6000602082840312156127a3576127a2612725565b5b60006127b184828501612778565b91505092915050565b600081519050919050565b600082825260208201905092915050565b6000819050602082019050919050565b6000819050919050565b6127f9816127e6565b82525050565b6128088161274f565b82525050565b7f4e487b7100000000000000000000000000000000000000000000000000000000600052602160045260246000fd5b6002811061284e5761284d61280e565b5b50565b600081905061285f8261283d565b919050565b600061286f82612851565b9050919050565b61287f81612864565b82525050565b60c08201600082015161289b60008501826127f0565b5060208201516128ae60208501826127ff565b5060408201516128c160408501826127f0565b5060608201516128d460608501826127f0565b5060808201516128e76080850182612876565b5060a08201516128fa60a08501826127f0565b50505050565b600061290c8383612885565b60c08301905092915050565b6000602082019050919050565b6000612930826127ba565b61293a81856127c5565b9350612945836127d6565b8060005b8381101561297657815161295d8882612900565b975061296883612918565b925050600181019050612949565b5085935050505092915050565b6000602082019050818103600083015261299d8184612925565b905092915050565b600081519050919050565b600082825260208201905092915050565b6000819050602082019050919050565b60006129dd83836127f0565b60208301905092915050565b6000602082019050919050565b6000612a01826129a5565b612a0b81856129b0565b9350612a16836129c1565b8060005b83811015612a47578151612a2e88826129d1565b9750612a39836129e9565b925050600181019050612a1a565b5085935050505092915050565b60006020820190508181036000830152612a6e81846129f6565b905092915050565b60028110612a8357600080fd5b50565b600081359050612a9581612a76565b92915050565b60008060408385031215612ab257612ab1612725565b5b6000612ac085828601612778565b9250506020612ad185828601612a86565b9150509250929050565b612ae4816127e6565b82525050565b6000602082019050612aff6000830184612adb565b92915050565b612b0e816127e6565b8114612b1957600080fd5b50565b600081359050612b2b81612b05565b92915050565b600060208284031215612b4757612b46612725565b5b6000612b5584828501612b1c565b91505092915050565b60008060408385031215612b7557612b74612725565b5b6000612b8385828601612b1c565b9250506020612b9485828601612778565b9150509250929050565b60008115159050919050565b612bb381612b9e565b82525050565b6000602082019050612bce6000830184612baa565b92915050565b600080fd5b600080fd5b600080fd5b60008083601f840112612bf957612bf8612bd4565b5b8235905067ffffffffffffffff811115612c1657612c15612bd9565b5b602083019150836020820283011115612c3257612c31612bde565b5b9250929050565b60008060208385031215612c5057612c4f612725565b5b600083013567ffffffffffffffff811115612c6e57612c6d61272a565b5b612c7a85828601612be3565b92509250509250929050565b612c8f8161274f565b82525050565b6000602082019050612caa6000830184612c86565b92915050565b6000819050919050565b6000612cd5612cd0612ccb8461272f565b612cb0565b61272f565b9050919050565b6000612ce782612cba565b9050919050565b6000612cf982612cdc565b9050919050565b612d0981612cee565b82525050565b6000602082019050612d246000830184612d00565b92915050565b60008060408385031215612d4157612d40612725565b5b6000612d4f85828601612778565b9250506020612d6085828601612b1c565b9150509250929050565b612d7381612864565b82525050565b600060c082019050612d8e6000830189612adb565b612d9b6020830188612c86565b612da86040830187612adb565b612db56060830186612adb565b612dc26080830185612d6a565b612dcf60a0830184612adb565b979650505050505050565b6000606082019050612def6000830186612adb565b612dfc6020830185612adb565b612e096040830184612adb565b949350505050565b60c082016000820151612e2760008501826127f0565b506020820151612e3a60208501826127ff565b506040820151612e4d60408501826127f0565b506060820151612e6060608501826127f0565b506080820151612e736080850182612876565b5060a0820151612e8660a08501826127f0565b50505050565b600060c082019050612ea16000830184612e11565b92915050565b7f4e487b7100000000000000000000000000000000000000000000000000000000600052603260045260246000fd5b7f4e487b7100000000000000000000000000000000000000000000000000000000600052601160045260246000fd5b6000612f10826127e6565b91507fffffffffffffffffffffffffffffffffffffffffffffffffffffffffffffffff8203612f4257612f41612ed6565b5b600182019050919050565b7f4e487b7100000000000000000000000000000000000000000000000000000000600052604160045260246000fd5b600082825260208201905092915050565b7f496e7465726e616c2066756e6374696f6e000000000000000000000000000000600082015250565b6000612fc3601183612f7c565b9150612fce82612f8d565b602082019050919050565b60006020820190508181036000830152612ff281612fb6565b9050919050565b600060408201905061300e6000830185612adb565b61301b6020830184612c86565b9392505050565b60008151905061303181612b05565b92915050565b60006020828403121561304d5761304c612725565b5b600061305b84828501613022565b91505092915050565b60008160e01c9050919050565b600060033d11156130905760046000803e61308d600051613064565b90505b90565b6000601f19601f8301169050919050565b6130ad82613093565b810181811067ffffffffffffffff821117156130cc576130cb612f4d565b5b80604052505050565b600060443d10613162576130e761271b565b60043d036004823e80513d602482011167ffffffffffffffff8211171561310f575050613162565b808201805167ffffffffffffffff81111561312d5750505050613162565b80602083010160043d03850181111561314a575050505050613162565b613159826020018501866130a4565b82955050505050505b90565b600081519050919050565b60005b8381101561318e578082015181840152602081019050613173565b60008484015250505050565b60006131a582613165565b6131af8185612f7c565b93506131bf818560208601613170565b6131c881613093565b840191505092915050565b60006040820190506131e86000830185612adb565b81810360208301526131fa818461319a565b90509392505050565b7f556e6b6e6f776e206572726f7200000000000000000000000000000000000000600082015250565b6000613239600d83612f7c565b915061324482613203565b602082019050919050565b60006040820190506132646000830184612adb565b81810360208301526132758161322c565b905092915050565b600080fd5b82818337505050565b600061329783856129b0565b93507f07ffffffffffffffffffffffffffffffffffffffffffffffffffffffffffffff8311156132ca576132c961327d565b5b6020830292506132db838584613282565b82840190509392505050565b6000606082019050818103600083015261330181876129f6565b9050818103602083015261331681858761328b565b90506133256040830184612adb565b95945050505050565b6000613339826127e6565b9150613344836127e6565b925082820390508181111561335c5761335b612ed6565b5b92915050565b60008151905061337181612761565b92915050565b60006020828403121561338d5761338c612725565b5b600061339b84828501613362565b91505092915050565b60006040820190506133b96000830185612c86565b6133c66020830184612c86565b9392505050565b6133d681612b9e565b81146133e157600080fd5b50565b6000815190506133f3816133cd565b92915050565b60006020828403121561340f5761340e612725565b5b600061341d848285016133e4565b91505092915050565b7f4e487b7100000000000000000000000000000000000000000000000000000000600052603160045260246000fdfea2646970667358221220fc99cf643add506e79de200d9913e9d7bd094029dd8eb01b49f15dcf49f42daf64736f6c63430008140033",
  "linkReferences": {},
  "deployedLinkReferences": {}
}