{
  "_format": "hh-sol-artifact-1",
  "contractName": "TheRecruits",
  "address": "0x3A5153AA8e22E0Ee37eFEd454cA95549521cDB8f",
  "sourceName": "contracts/TheRecruits.sol",
  "abi": [
    {
      "inputs": [],
      "stateMutability": "nonpayable",
      "type": "constructor"
    },
    {
      "inputs": [],
      "name": "AdminURISetPaused",
      "type": "error"
    },
    {
      "inputs": [],
      "name": "ApprovalCallerNotOwnerNorApproved",
      "type": "error"
    },
    {
      "inputs": [],
      "name": "ApprovalQueryForNonexistentToken",
      "type": "error"
    },
    {
      "inputs": [],
      "name": "BalanceQueryForZeroAddress",
      "type": "error"
    },
    {
      "inputs": [],
      "name": "CreatorTokenBase__InvalidTransferValidatorContract",
      "type": "error"
    },
    {
      "inputs": [
        {
          "internalType": "uint256",
          "name": "numerator",
          "type": "uint256"
        },
        {
          "internalType": "uint256",
          "name": "denominator",
          "type": "uint256"
        }
      ],
      "name": "ERC2981InvalidDefaultRoyalty",
      "type": "error"
    },
    {
      "inputs": [
        {
          "internalType": "address",
          "name": "receiver",
          "type": "address"
        }
      ],
      "name": "ERC2981InvalidDefaultRoyaltyReceiver",
      "type": "error"
    },
    {
      "inputs": [
        {
          "internalType": "uint256",
          "name": "tokenId",
          "type": "uint256"
        },
        {
          "internalType": "uint256",
          "name": "numerator",
          "type": "uint256"
        },
        {
          "internalType": "uint256",
          "name": "denominator",
          "type": "uint256"
        }
      ],
      "name": "ERC2981InvalidTokenRoyalty",
      "type": "error"
    },
    {
      "inputs": [
        {
          "internalType": "uint256",
          "name": "tokenId",
          "type": "uint256"
        },
        {
          "internalType": "address",
          "name": "receiver",
          "type": "address"
        }
      ],
      "name": "ERC2981InvalidTokenRoyaltyReceiver",
      "type": "error"
    },
    {
      "inputs": [],
      "name": "InsufficientPayment",
      "type": "error"
    },
    {
      "inputs": [],
      "name": "InvalidTokenURI",
      "type": "error"
    },
    {
      "inputs": [],
      "name": "MintERC2309QuantityExceedsLimit",
      "type": "error"
    },
    {
      "inputs": [],
      "name": "MintToZeroAddress",
      "type": "error"
    },
    {
      "inputs": [],
      "name": "MintZeroQuantity",
      "type": "error"
    },
    {
      "inputs": [],
      "name": "MintingDisabled",
      "type": "error"
    },
    {
      "inputs": [],
      "name": "NoFundsToWithdraw",
      "type": "error"
    },
    {
      "inputs": [],
      "name": "NonExistentToken",
      "type": "error"
    },
    {
      "inputs": [],
      "name": "NotApprovedOrOwner",
      "type": "error"
    },
    {
      "inputs": [],
      "name": "NotCompatibleWithSpotMints",
      "type": "error"
    },
    {
      "inputs": [
        {
          "internalType": "address",
          "name": "owner",
          "type": "address"
        }
      ],
      "name": "OwnableInvalidOwner",
      "type": "error"
    },
    {
      "inputs": [
        {
          "internalType": "address",
          "name": "account",
          "type": "address"
        }
      ],
      "name": "OwnableUnauthorizedAccount",
      "type": "error"
    },
    {
      "inputs": [],
      "name": "OwnerQueryForNonexistentToken",
      "type": "error"
    },
    {
      "inputs": [],
      "name": "OwnershipNotInitializedForExtraData",
      "type": "error"
    },
    {
      "inputs": [],
      "name": "ReentrancyGuardReentrantCall",
      "type": "error"
    },
    {
      "inputs": [],
      "name": "SequentialMintExceedsLimit",
      "type": "error"
    },
    {
      "inputs": [],
      "name": "SequentialUpToTooSmall",
      "type": "error"
    },
    {
      "inputs": [],
      "name": "ShouldNotMintToBurnAddress",
      "type": "error"
    },
    {
      "inputs": [],
      "name": "SpotMintTokenIdTooSmall",
      "type": "error"
    },
    {
      "inputs": [],
      "name": "TokenAlreadyExists",
      "type": "error"
    },
    {
      "inputs": [],
      "name": "TokenTransferPaused",
      "type": "error"
    },
    {
      "inputs": [],
      "name": "TransferCallerNotOwnerNorApproved",
      "type": "error"
    },
    {
      "inputs": [],
      "name": "TransferFromIncorrectOwner",
      "type": "error"
    },
    {
      "inputs": [],
      "name": "TransferToNonERC721ReceiverImplementer",
      "type": "error"
    },
    {
      "inputs": [],
      "name": "TransferToZeroAddress",
      "type": "error"
    },
    {
      "inputs": [],
      "name": "URICountMismatch",
      "type": "error"
    },
    {
      "inputs": [],
      "name": "URIQueryForNonexistentToken",
      "type": "error"
    },
    {
      "inputs": [],
      "name": "WithdrawalFailed",
      "type": "error"
    },
    {
      "inputs": [],
      "name": "ZeroQuantity",
      "type": "error"
    },
    {
      "anonymous": false,
      "inputs": [
        {
          "indexed": true,
          "internalType": "address",
          "name": "owner",
          "type": "address"
        },
        {
          "indexed": true,
          "internalType": "address",
          "name": "approved",
          "type": "address"
        },
        {
          "indexed": true,
          "internalType": "uint256",
          "name": "tokenId",
          "type": "uint256"
        }
      ],
      "name": "Approval",
      "type": "event"
    },
    {
      "anonymous": false,
      "inputs": [
        {
          "indexed": true,
          "internalType": "address",
          "name": "owner",
          "type": "address"
        },
        {
          "indexed": true,
          "internalType": "address",
          "name": "operator",
          "type": "address"
        },
        {
          "indexed": false,
          "internalType": "bool",
          "name": "approved",
          "type": "bool"
        }
      ],
      "name": "ApprovalForAll",
      "type": "event"
    },
    {
      "anonymous": false,
      "inputs": [
        {
          "indexed": false,
          "internalType": "bool",
          "name": "autoApproved",
          "type": "bool"
        }
      ],
      "name": "AutomaticApprovalOfTransferValidatorSet",
      "type": "event"
    },
    {
      "anonymous": false,
      "inputs": [
        {
          "indexed": true,
          "internalType": "uint256",
          "name": "fromTokenId",
          "type": "uint256"
        },
        {
          "indexed": false,
          "internalType": "uint256",
          "name": "toTokenId",
          "type": "uint256"
        },
        {
          "indexed": true,
          "internalType": "address",
          "name": "from",
          "type": "address"
        },
        {
          "indexed": true,
          "internalType": "address",
          "name": "to",
          "type": "address"
        }
      ],
      "name": "ConsecutiveTransfer",
      "type": "event"
    },
    {
      "anonymous": false,
      "inputs": [
        {
          "indexed": true,
          "internalType": "address",
          "name": "validator",
          "type": "address"
        }
      ],
      "name": "CreatorTokensConfigured",
      "type": "event"
    },
    {
      "anonymous": false,
      "inputs": [
        {
          "indexed": true,
          "internalType": "address",
          "name": "previousOwner",
          "type": "address"
        },
        {
          "indexed": true,
          "internalType": "address",
          "name": "newOwner",
          "type": "address"
        }
      ],
      "name": "OwnershipTransferred",
      "type": "event"
    },
    {
      "anonymous": false,
      "inputs": [
        {
          "indexed": true,
          "internalType": "address",
          "name": "stakingContract",
          "type": "address"
        }
      ],
      "name": "StakingContractSet",
      "type": "event"
    },
    {
      "anonymous": false,
      "inputs": [
        {
          "indexed": true,
          "internalType": "address",
          "name": "to",
          "type": "address"
        },
        {
          "indexed": true,
          "internalType": "uint256",
          "name": "tokenId",
          "type": "uint256"
        }
      ],
      "name": "TokenMinted",
      "type": "event"
    },
    {
      "anonymous": false,
      "inputs": [
        {
          "indexed": true,
          "internalType": "address",
          "name": "to",
          "type": "address"
        },
        {
          "indexed": true,
          "internalType": "uint256",
          "name": "quantity",
          "type": "uint256"
        }
      ],
      "name": "TokenReserved",
      "type": "event"
    },
    {
      "anonymous": false,
      "inputs": [
        {
          "indexed": true,
          "internalType": "address",
          "name": "from",
          "type": "address"
        },
        {
          "indexed": true,
          "internalType": "address",
          "name": "to",
          "type": "address"
        },
        {
          "indexed": true,
          "internalType": "uint256",
          "name": "tokenId",
          "type": "uint256"
        }
      ],
      "name": "Transfer",
      "type": "event"
    },
    {
      "anonymous": false,
      "inputs": [
        {
          "indexed": false,
          "internalType": "address",
          "name": "oldValidator",
          "type": "address"
        },
        {
          "indexed": false,
          "internalType": "address",
          "name": "newValidator",
          "type": "address"
        }
      ],
      "name": "TransferValidatorUpdated",
      "type": "event"
    },
    {
      "inputs": [],
      "name": "DEFAULT_TRANSFER_VALIDATOR",
      "outputs": [
        {
          "internalType": "address",
          "name": "",
          "type": "address"
        }
      ],
      "stateMutability": "view",
      "type": "function"
    },
    {
      "inputs": [
        {
          "internalType": "uint256[]",
          "name": "tokenIds",
          "type": "uint256[]"
        },
        {
          "internalType": "bool",
          "name": "paused",
          "type": "bool"
        }
      ],
      "name": "adminSetBatchTokenTransferPaused",
      "outputs": [],
      "stateMutability": "nonpayable",
      "type": "function"
    },
    {
      "inputs": [
        {
          "internalType": "uint256",
          "name": "tokenId",
          "type": "uint256"
        },
        {
          "internalType": "bool",
          "name": "paused",
          "type": "bool"
        }
      ],
      "name": "adminSetTokenTransferPaused",
      "outputs": [],
      "stateMutability": "nonpayable",
      "type": "function"
    },
    {
      "inputs": [
        {
          "internalType": "uint256",
          "name": "tokenId",
          "type": "uint256"
        },
        {
          "internalType": "string",
          "name": "uri",
          "type": "string"
        }
      ],
      "name": "adminSetTokenURI",
      "outputs": [],
      "stateMutability": "nonpayable",
      "type": "function"
    },
    {
      "inputs": [
        {
          "internalType": "address",
          "name": "to",
          "type": "address"
        },
        {
          "internalType": "uint256",
          "name": "tokenId",
          "type": "uint256"
        }
      ],
      "name": "approve",
      "outputs": [],
      "stateMutability": "payable",
      "type": "function"
    },
    {
      "inputs": [],
      "name": "autoApproveTransfersFromValidator",
      "outputs": [
        {
          "internalType": "bool",
          "name": "",
          "type": "bool"
        }
      ],
      "stateMutability": "view",
      "type": "function"
    },
    {
      "inputs": [
        {
          "internalType": "address",
          "name": "owner",
          "type": "address"
        }
      ],
      "name": "balanceOf",
      "outputs": [
        {
          "internalType": "uint256",
          "name": "",
          "type": "uint256"
        }
      ],
      "stateMutability": "view",
      "type": "function"
    },
    {
      "inputs": [
        {
          "internalType": "uint256",
          "name": "tokenId",
          "type": "uint256"
        }
      ],
      "name": "burn",
      "outputs": [],
      "stateMutability": "nonpayable",
      "type": "function"
    },
    {
      "inputs": [],
      "name": "configureCreatorTokens",
      "outputs": [],
      "stateMutability": "nonpayable",
      "type": "function"
    },
    {
      "inputs": [],
      "name": "contractURI",
      "outputs": [
        {
          "internalType": "string",
          "name": "",
          "type": "string"
        }
      ],
      "stateMutability": "view",
      "type": "function"
    },
    {
      "inputs": [],
      "name": "emergencyDisableEnforcement",
      "outputs": [],
      "stateMutability": "nonpayable",
      "type": "function"
    },
    {
      "inputs": [],
      "name": "getAllPausedTokenOwnerCounts",
      "outputs": [
        {
          "internalType": "address[]",
          "name": "",
          "type": "address[]"
        },
        {
          "internalType": "uint256[]",
          "name": "",
          "type": "uint256[]"
        }
      ],
      "stateMutability": "view",
      "type": "function"
    },
    {
      "inputs": [
        {
          "internalType": "uint256",
          "name": "tokenId",
          "type": "uint256"
        }
      ],
      "name": "getApproved",
      "outputs": [
        {
          "internalType": "address",
          "name": "",
          "type": "address"
        }
      ],
      "stateMutability": "view",
      "type": "function"
    },
    {
      "inputs": [],
      "name": "getPausedTokenIds",
      "outputs": [
        {
          "internalType": "uint256[]",
          "name": "",
          "type": "uint256[]"
        }
      ],
      "stateMutability": "view",
      "type": "function"
    },
    {
      "inputs": [],
      "name": "getTransferValidationFunction",
      "outputs": [
        {
          "internalType": "bytes4",
          "name": "functionSignature",
          "type": "bytes4"
        },
        {
          "internalType": "bool",
          "name": "isViewFunction",
          "type": "bool"
        }
      ],
      "stateMutability": "pure",
      "type": "function"
    },
    {
      "inputs": [],
      "name": "getTransferValidator",
      "outputs": [
        {
          "internalType": "address",
          "name": "validator",
          "type": "address"
        }
      ],
      "stateMutability": "view",
      "type": "function"
    },
    {
      "inputs": [],
      "name": "getTransferValidatorConfig",
      "outputs": [
        {
          "internalType": "address",
          "name": "validator",
          "type": "address"
        },
        {
          "internalType": "bool",
          "name": "enforcementEnabled",
          "type": "bool"
        }
      ],
      "stateMutability": "view",
      "type": "function"
    },
    {
      "inputs": [
        {
          "internalType": "address",
          "name": "user",
          "type": "address"
        }
      ],
      "name": "getUserPausedTokenIds",
      "outputs": [
        {
          "internalType": "uint256[]",
          "name": "",
          "type": "uint256[]"
        }
      ],
      "stateMutability": "view",
      "type": "function"
    },
    {
      "inputs": [],
      "name": "isAdminURISetPaused",
      "outputs": [
        {
          "internalType": "bool",
          "name": "",
          "type": "bool"
        }
      ],
      "stateMutability": "view",
      "type": "function"
    },
    {
      "inputs": [
        {
          "internalType": "address",
          "name": "owner",
          "type": "address"
        },
        {
          "internalType": "address",
          "name": "operator",
          "type": "address"
        }
      ],
      "name": "isApprovedForAll",
      "outputs": [
        {
          "internalType": "bool",
          "name": "isApproved",
          "type": "bool"
        }
      ],
      "stateMutability": "view",
      "type": "function"
    },
    {
      "inputs": [],
      "name": "isMintable",
      "outputs": [
        {
          "internalType": "bool",
          "name": "",
          "type": "bool"
        }
      ],
      "stateMutability": "view",
      "type": "function"
    },
    {
      "inputs": [],
      "name": "isRoyaltyEnforcementEnabled",
      "outputs": [
        {
          "internalType": "bool",
          "name": "",
          "type": "bool"
        }
      ],
      "stateMutability": "view",
      "type": "function"
    },
    {
      "inputs": [
        {
          "internalType": "uint256",
          "name": "tokenId",
          "type": "uint256"
        }
      ],
      "name": "isTokenTransferPaused",
      "outputs": [
        {
          "internalType": "bool",
          "name": "",
          "type": "bool"
        }
      ],
      "stateMutability": "view",
      "type": "function"
    },
    {
      "inputs": [
        {
          "internalType": "string",
          "name": "uri",
          "type": "string"
        }
      ],
      "name": "mint",
      "outputs": [],
      "stateMutability": "payable",
      "type": "function"
    },
    {
      "inputs": [],
      "name": "mintPrice",
      "outputs": [
        {
          "internalType": "uint256",
          "name": "",
          "type": "uint256"
        }
      ],
      "stateMutability": "view",
      "type": "function"
    },
    {
      "inputs": [],
      "name": "name",
      "outputs": [
        {
          "internalType": "string",
          "name": "",
          "type": "string"
        }
      ],
      "stateMutability": "view",
      "type": "function"
    },
    {
      "inputs": [],
      "name": "owner",
      "outputs": [
        {
          "internalType": "address",
          "name": "",
          "type": "address"
        }
      ],
      "stateMutability": "view",
      "type": "function"
    },
    {
      "inputs": [
        {
          "internalType": "uint256",
          "name": "tokenId",
          "type": "uint256"
        }
      ],
      "name": "ownerOf",
      "outputs": [
        {
          "internalType": "address",
          "name": "",
          "type": "address"
        }
      ],
      "stateMutability": "view",
      "type": "function"
    },
    {
      "inputs": [],
      "name": "renounceOwnership",
      "outputs": [],
      "stateMutability": "nonpayable",
      "type": "function"
    },
    {
      "inputs": [
        {
          "internalType": "address",
          "name": "to",
          "type": "address"
        },
        {
          "internalType": "uint256",
          "name": "quantity",
          "type": "uint256"
        },
        {
          "internalType": "string[]",
          "name": "uris",
          "type": "string[]"
        }
      ],
      "name": "reserve",
      "outputs": [],
      "stateMutability": "nonpayable",
      "type": "function"
    },
    {
      "inputs": [
        {
          "internalType": "uint256",
          "name": "tokenId",
          "type": "uint256"
        },
        {
          "internalType": "uint256",
          "name": "salePrice",
          "type": "uint256"
        }
      ],
      "name": "royaltyInfo",
      "outputs": [
        {
          "internalType": "address",
          "name": "receiver",
          "type": "address"
        },
        {
          "internalType": "uint256",
          "name": "amount",
          "type": "uint256"
        }
      ],
      "stateMutability": "view",
      "type": "function"
    },
    {
      "inputs": [
        {
          "internalType": "address",
          "name": "from",
          "type": "address"
        },
        {
          "internalType": "address",
          "name": "to",
          "type": "address"
        },
        {
          "internalType": "uint256",
          "name": "tokenId",
          "type": "uint256"
        }
      ],
      "name": "safeTransferFrom",
      "outputs": [],
      "stateMutability": "payable",
      "type": "function"
    },
    {
      "inputs": [
        {
          "internalType": "address",
          "name": "from",
          "type": "address"
        },
        {
          "internalType": "address",
          "name": "to",
          "type": "address"
        },
        {
          "internalType": "uint256",
          "name": "tokenId",
          "type": "uint256"
        },
        {
          "internalType": "bytes",
          "name": "_data",
          "type": "bytes"
        }
      ],
      "name": "safeTransferFrom",
      "outputs": [],
      "stateMutability": "payable",
      "type": "function"
    },
    {
      "inputs": [
        {
          "internalType": "bool",
          "name": "paused",
          "type": "bool"
        }
      ],
      "name": "setAdminURISetPaused",
      "outputs": [],
      "stateMutability": "nonpayable",
      "type": "function"
    },
    {
      "inputs": [
        {
          "internalType": "address",
          "name": "operator",
          "type": "address"
        },
        {
          "internalType": "bool",
          "name": "approved",
          "type": "bool"
        }
      ],
      "name": "setApprovalForAll",
      "outputs": [],
      "stateMutability": "nonpayable",
      "type": "function"
    },
    {
      "inputs": [
        {
          "internalType": "bool",
          "name": "autoApprove",
          "type": "bool"
        }
      ],
      "name": "setAutomaticApprovalOfTransfersFromValidator",
      "outputs": [],
      "stateMutability": "nonpayable",
      "type": "function"
    },
    {
      "inputs": [
        {
          "internalType": "string",
          "name": "uri",
          "type": "string"
        }
      ],
      "name": "setContractURI",
      "outputs": [],
      "stateMutability": "nonpayable",
      "type": "function"
    },
    {
      "inputs": [
        {
          "internalType": "address",
          "name": "receiver",
          "type": "address"
        },
        {
          "internalType": "uint96",
          "name": "feeNumerator",
          "type": "uint96"
        }
      ],
      "name": "setDefaultRoyalty",
      "outputs": [],
      "stateMutability": "nonpayable",
      "type": "function"
    },
    {
      "inputs": [
        {
          "internalType": "uint256",
          "name": "price",
          "type": "uint256"
        }
      ],
      "name": "setMintPrice",
      "outputs": [],
      "stateMutability": "nonpayable",
      "type": "function"
    },
    {
      "inputs": [
        {
          "internalType": "bool",
          "name": "_isMintable",
          "type": "bool"
        }
      ],
      "name": "setMintable",
      "outputs": [],
      "stateMutability": "nonpayable",
      "type": "function"
    },
    {
      "inputs": [
        {
          "internalType": "address",
          "name": "_stakingContract",
          "type": "address"
        }
      ],
      "name": "setStakingContract",
      "outputs": [],
      "stateMutability": "nonpayable",
      "type": "function"
    },
    {
      "inputs": [
        {
          "internalType": "uint256",
          "name": "tokenId",
          "type": "uint256"
        },
        {
          "internalType": "address",
          "name": "receiver",
          "type": "address"
        },
        {
          "internalType": "uint96",
          "name": "feeNumerator",
          "type": "uint96"
        }
      ],
      "name": "setTokenRoyalty",
      "outputs": [],
      "stateMutability": "nonpayable",
      "type": "function"
    },
    {
      "inputs": [
        {
          "internalType": "address",
          "name": "transferValidator_",
          "type": "address"
        }
      ],
      "name": "setTransferValidator",
      "outputs": [],
      "stateMutability": "nonpayable",
      "type": "function"
    },
    {
      "inputs": [],
      "name": "stakingContract",
      "outputs": [
        {
          "internalType": "contract ITheRecruitsStaking",
          "name": "",
          "type": "address"
        }
      ],
      "stateMutability": "view",
      "type": "function"
    },
    {
      "inputs": [
        {
          "internalType": "bytes4",
          "name": "interfaceId",
          "type": "bytes4"
        }
      ],
      "name": "supportsInterface",
      "outputs": [
        {
          "internalType": "bool",
          "name": "",
          "type": "bool"
        }
      ],
      "stateMutability": "view",
      "type": "function"
    },
    {
      "inputs": [],
      "name": "symbol",
      "outputs": [
        {
          "internalType": "string",
          "name": "",
          "type": "string"
        }
      ],
      "stateMutability": "view",
      "type": "function"
    },
    {
      "inputs": [
        {
          "internalType": "address",
          "name": "owner",
          "type": "address"
        },
        {
          "internalType": "uint256",
          "name": "index",
          "type": "uint256"
        }
      ],
      "name": "tokenOfOwnerByIndex",
      "outputs": [
        {
          "internalType": "uint256",
          "name": "",
          "type": "uint256"
        }
      ],
      "stateMutability": "view",
      "type": "function"
    },
    {
      "inputs": [
        {
          "internalType": "uint256",
          "name": "tokenId",
          "type": "uint256"
        }
      ],
      "name": "tokenURI",
      "outputs": [
        {
          "internalType": "string",
          "name": "",
          "type": "string"
        }
      ],
      "stateMutability": "view",
      "type": "function"
    },
    {
      "inputs": [
        {
          "internalType": "address",
          "name": "owner",
          "type": "address"
        }
      ],
      "name": "tokensOfOwner",
      "outputs": [
        {
          "internalType": "uint256[]",
          "name": "",
          "type": "uint256[]"
        }
      ],
      "stateMutability": "view",
      "type": "function"
    },
    {
      "inputs": [],
      "name": "totalSupply",
      "outputs": [
        {
          "internalType": "uint256",
          "name": "result",
          "type": "uint256"
        }
      ],
      "stateMutability": "view",
      "type": "function"
    },
    {
      "inputs": [
        {
          "internalType": "address",
          "name": "from",
          "type": "address"
        },
        {
          "internalType": "address",
          "name": "to",
          "type": "address"
        },
        {
          "internalType": "uint256",
          "name": "tokenId",
          "type": "uint256"
        }
      ],
      "name": "transferFrom",
      "outputs": [],
      "stateMutability": "payable",
      "type": "function"
    },
    {
      "inputs": [
        {
          "internalType": "address",
          "name": "newOwner",
          "type": "address"
        }
      ],
      "name": "transferOwnership",
      "outputs": [],
      "stateMutability": "nonpayable",
      "type": "function"
    },
    {
      "inputs": [],
      "name": "withdraw",
      "outputs": [],
      "stateMutability": "nonpayable",
      "type": "function"
    }
  ],
  "bytecode": "0x60806040523480156200001157600080fd5b50336040518060400160405280600c81526020017f54686520526563727569747300000000000000000000000000000000000000008152506040518060400160405280600781526020017f5245435255495400000000000000000000000000000000000000000000000000815250818181600290816200009291906200083d565b508060039081620000a491906200083d565b50620000b5620001eb60201b60201c565b600081905550620000cb620001eb60201b60201c565b620000db620001f060201b60201c565b1015620000fb57620000fa63fed8210f60e01b6200021860201b60201c565b5b50506200010d6200022260201b60201c565b6200013273721c008fdff27bf06e7e123956e2fe03b63342e36200027460201b60201c565b5050600073ffffffffffffffffffffffffffffffffffffffff168173ffffffffffffffffffffffffffffffffffffffff1603620001a95760006040517f1e4fbdf7000000000000000000000000000000000000000000000000000000008152600401620001a0919062000969565b60405180910390fd5b620001ba816200033960201b60201c565b506001600d81905550662386f26fc10000600f81905550620001e5336101f4620003ff60201b60201c565b62000a8e565b600090565b60007fffffffffffffffffffffffffffffffffffffffffffffffffffffffffffffffff905090565b8060005260046000fd5b7fcc5dc080ff977b3c3a211fa63ab74f90f658f5ba9d3236e92c8f59570f442aac600073721c008fdff27bf06e7e123956e2fe03b63342e36040516200026a92919062000986565b60405180910390a1565b600073ffffffffffffffffffffffffffffffffffffffff168173ffffffffffffffffffffffffffffffffffffffff161462000336576000813b9050600081111562000334578173ffffffffffffffffffffffffffffffffffffffff1663fb2de5d730620002e6620005af60201b60201c565b6040518363ffffffff1660e01b815260040162000305929190620009d2565b600060405180830381600087803b1580156200032057600080fd5b505af192505050801562000332575060015b505b505b50565b6000600c60009054906101000a900473ffffffffffffffffffffffffffffffffffffffff16905081600c60006101000a81548173ffffffffffffffffffffffffffffffffffffffff021916908373ffffffffffffffffffffffffffffffffffffffff1602179055508173ffffffffffffffffffffffffffffffffffffffff168173ffffffffffffffffffffffffffffffffffffffff167f8be0079c531659141344cd1fd0a4f28419497f9722a3daafe3b4186f6b6457e060405160405180910390a35050565b600062000411620005b960201b60201c565b6bffffffffffffffffffffffff16905080826bffffffffffffffffffffffff161115620004795781816040517f6f483d090000000000000000000000000000000000000000000000000000000081526004016200047092919062000a61565b60405180910390fd5b600073ffffffffffffffffffffffffffffffffffffffff168373ffffffffffffffffffffffffffffffffffffffff1603620004ee5760006040517fb6d9900a000000000000000000000000000000000000000000000000000000008152600401620004e5919062000969565b60405180910390fd5b60405180604001604052808473ffffffffffffffffffffffffffffffffffffffff168152602001836bffffffffffffffffffffffff16815250600a60008201518160000160006101000a81548173ffffffffffffffffffffffffffffffffffffffff021916908373ffffffffffffffffffffffffffffffffffffffff16021790555060208201518160000160146101000a8154816bffffffffffffffffffffffff02191690836bffffffffffffffffffffffff160217905550905050505050565b60006102d1905090565b6000612710905090565b600081519050919050565b7f4e487b7100000000000000000000000000000000000000000000000000000000600052604160045260246000fd5b7f4e487b7100000000000000000000000000000000000000000000000000000000600052602260045260246000fd5b600060028204905060018216806200064557607f821691505b6020821081036200065b576200065a620005fd565b5b50919050565b60008190508160005260206000209050919050565b60006020601f8301049050919050565b600082821b905092915050565b600060088302620006c57fffffffffffffffffffffffffffffffffffffffffffffffffffffffffffffffff8262000686565b620006d1868362000686565b95508019841693508086168417925050509392505050565b6000819050919050565b6000819050919050565b60006200071e620007186200071284620006e9565b620006f3565b620006e9565b9050919050565b6000819050919050565b6200073a83620006fd565b62000752620007498262000725565b84845462000693565b825550505050565b600090565b620007696200075a565b620007768184846200072f565b505050565b5b818110156200079e57620007926000826200075f565b6001810190506200077c565b5050565b601f821115620007ed57620007b78162000661565b620007c28462000676565b81016020851015620007d2578190505b620007ea620007e18562000676565b8301826200077b565b50505b505050565b600082821c905092915050565b60006200081260001984600802620007f2565b1980831691505092915050565b60006200082d8383620007ff565b9150826002028217905092915050565b6200084882620005c3565b67ffffffffffffffff811115620008645762000863620005ce565b5b6200087082546200062c565b6200087d828285620007a2565b600060209050601f831160018114620008b55760008415620008a0578287015190505b620008ac85826200081f565b8655506200091c565b601f198416620008c58662000661565b60005b82811015620008ef57848901518255600182019150602085019450602081019050620008c8565b868310156200090f57848901516200090b601f891682620007ff565b8355505b6001600288020188555050505b505050505050565b600073ffffffffffffffffffffffffffffffffffffffff82169050919050565b6000620009518262000924565b9050919050565b620009638162000944565b82525050565b600060208201905062000980600083018462000958565b92915050565b60006040820190506200099d600083018562000958565b620009ac602083018462000958565b9392505050565b600061ffff82169050919050565b620009cc81620009b3565b82525050565b6000604082019050620009e9600083018562000958565b620009f86020830184620009c1565b9392505050565b60006bffffffffffffffffffffffff82169050919050565b600062000a3862000a3262000a2c84620009ff565b620006f3565b620006e9565b9050919050565b62000a4a8162000a17565b82525050565b62000a5b81620006e9565b82525050565b600060408201905062000a78600083018562000a3f565b62000a87602083018462000a50565b9392505050565b615e9d8062000a9e6000396000f3fe60806040526004361061031a5760003560e01c80636352211e116101ab5780639e05d240116100f7578063c87b56dd11610095578063e985e9c51161006f578063e985e9c514610b5b578063ee99205c14610b98578063f2fde38b14610bc3578063f4a0a52814610bec5761031a565b8063c87b56dd14610ad7578063d85d3d2714610b14578063e8a3d48514610b305761031a565b8063aae87671116100d1578063aae8767114610a3b578063b4cb544e14610a67578063b88d4fde14610a92578063bfa48bfe14610aae5761031a565b80639e05d240146109c0578063a22cb465146109e9578063a9fc664e14610a125761031a565b806386725428116101645780638ee713ef1161013e5780638ee713ef1461091a578063938e3d7b1461094357806395d89b411461096c5780639dd373b9146109975761031a565b806386725428146108af5780638d305ee1146108c65780638da5cb5b146108ef5761031a565b80636352211e1461078b5780636817c76c146107c85780636ef64070146107f357806370a082311461081e578063715018a61461085b5780638462151c146108725761031a565b80632e14956f1161026a57806342842e0e116102235780634f415be2116101fd5780634f415be2146106e25780634fd5b9781461070b5780635944c753146107375780636221d13c146107605761031a565b806342842e0e1461067257806342966c681461068e57806346b45af7146106b75761031a565b80632e14956f146105505780632f745c591461058d5780633466cc93146105ca5780633638196c146106075780633ccfd60b146106305780633cdeeeac146106475761031a565b8063098144d4116102d757806323b872dd116102b157806323b872dd146104b6578063285d70d4146104d25780632864f912146104fb5780632a55205a146105125761031a565b8063098144d4146104345780630d705df61461045f57806318160ddd1461048b5761031a565b8063014635461461031f57806301ffc9a71461034a57806304634d8d1461038757806306fdde03146103b0578063081812fc146103db578063095ea7b314610418575b600080fd5b34801561032b57600080fd5b50610334610c15565b60405161034191906145f2565b60405180910390f35b34801561035657600080fd5b50610371600480360381019061036c9190614679565b610c2d565b60405161037e91906146c1565b60405180910390f35b34801561039357600080fd5b506103ae60048036038101906103a9919061474c565b610c3f565b005b3480156103bc57600080fd5b506103c5610c55565b6040516103d2919061481c565b60405180910390f35b3480156103e757600080fd5b5061040260048036038101906103fd9190614874565b610ce7565b60405161040f91906145f2565b60405180910390f35b610432600480360381019061042d91906148a1565b610d45565b005b34801561044057600080fd5b50610449610d55565b60405161045691906145f2565b60405180910390f35b34801561046b57600080fd5b50610474610de0565b6040516104829291906148f0565b60405180910390f35b34801561049757600080fd5b506104a0610e0e565b6040516104ad9190614928565b60405180910390f35b6104d060048036038101906104cb9190614943565b610e5b565b005b3480156104de57600080fd5b506104f960048036038101906104f491906149c2565b61111c565b005b34801561050757600080fd5b50610510611141565b005b34801561051e57600080fd5b50610539600480360381019061053491906149ef565b611199565b604051610547929190614a2f565b60405180910390f35b34801561055c57600080fd5b5061057760048036038101906105729190614874565b6112c9565b60405161058491906146c1565b60405180910390f35b34801561059957600080fd5b506105b460048036038101906105af91906148a1565b6113cd565b6040516105c19190614928565b60405180910390f35b3480156105d657600080fd5b506105f160048036038101906105ec9190614a58565b6114b8565b6040516105fe9190614b43565b60405180910390f35b34801561061357600080fd5b5061062e60048036038101906106299190614bca565b6115f3565b005b34801561063c57600080fd5b506106456117d1565b005b34801561065357600080fd5b5061065c6118d6565b6040516106699190614b43565b60405180910390f35b61068c60048036038101906106879190614943565b611a04565b005b34801561069a57600080fd5b506106b560048036038101906106b09190614874565b611a24565b005b3480156106c357600080fd5b506106cc611b93565b6040516106d991906146c1565b60405180910390f35b3480156106ee57600080fd5b5061070960048036038101906107049190614c94565b611ba6565b005b34801561071757600080fd5b50610720611cd5565b60405161072e929190614cf4565b60405180910390f35b34801561074357600080fd5b5061075e60048036038101906107599190614d1d565b611d19565b005b34801561076c57600080fd5b50610775611d70565b60405161078291906146c1565b60405180910390f35b34801561079757600080fd5b506107b260048036038101906107ad9190614874565b611d83565b6040516107bf91906145f2565b60405180910390f35b3480156107d457600080fd5b506107dd611d95565b6040516107ea9190614928565b60405180910390f35b3480156107ff57600080fd5b50610808611d9b565b60405161081591906146c1565b60405180910390f35b34801561082a57600080fd5b5061084560048036038101906108409190614a58565b611db2565b6040516108529190614928565b60405180910390f35b34801561086757600080fd5b50610870611e49565b005b34801561087e57600080fd5b5061089960048036038101906108949190614a58565b611e5d565b6040516108a69190614b43565b60405180910390f35b3480156108bb57600080fd5b506108c4611fc6565b005b3480156108d257600080fd5b506108ed60048036038101906108e89190614d70565b612044565b005b3480156108fb57600080fd5b50610904612170565b60405161091191906145f2565b60405180910390f35b34801561092657600080fd5b50610941600480360381019061093c91906149c2565b61219a565b005b34801561094f57600080fd5b5061096a60048036038101906109659190614e06565b6121bf565b005b34801561097857600080fd5b506109816121dd565b60405161098e919061481c565b60405180910390f35b3480156109a357600080fd5b506109be60048036038101906109b99190614a58565b61226f565b005b3480156109cc57600080fd5b506109e760048036038101906109e291906149c2565b6122fe565b005b3480156109f557600080fd5b50610a106004803603810190610a0b9190614e53565b61235a565b005b348015610a1e57600080fd5b50610a396004803603810190610a349190614a58565b612465565b005b348015610a4757600080fd5b50610a506125a6565b604051610a5e929190614f51565b60405180910390f35b348015610a7357600080fd5b50610a7c6126d8565b604051610a8991906146c1565b60405180910390f35b610aac6004803603810190610aa791906150b8565b612716565b005b348015610aba57600080fd5b50610ad56004803603810190610ad0919061513b565b612768565b005b348015610ae357600080fd5b50610afe6004803603810190610af99190614874565b61285b565b604051610b0b919061481c565b60405180910390f35b610b2e6004803603810190610b299190614e06565b612980565b005b348015610b3c57600080fd5b50610b45612ad1565b604051610b52919061481c565b60405180910390f35b348015610b6757600080fd5b50610b826004803603810190610b7d919061519b565b612b63565b604051610b8f91906146c1565b60405180910390f35b348015610ba457600080fd5b50610bad612bcb565b604051610bba919061523a565b60405180910390f35b348015610bcf57600080fd5b50610bea6004803603810190610be59190614a58565b612bf1565b005b348015610bf857600080fd5b50610c136004803603810190610c0e9190614874565b612c77565b005b73721c008fdff27bf06e7e123956e2fe03b63342e381565b6000610c3882612c89565b9050919050565b610c47612d03565b610c518282612d8a565b5050565b606060028054610c6490615284565b80601f0160208091040260200160405190810160405280929190818152602001828054610c9090615284565b8015610cdd5780601f10610cb257610100808354040283529160200191610cdd565b820191906000526020600020905b815481529060010190602001808311610cc057829003601f168201915b5050505050905090565b6000610cf282612f2c565b610d0757610d0663cf4700e460e01b612fd8565b5b6006600083815260200190815260200160002060000160009054906101000a900473ffffffffffffffffffffffffffffffffffffffff169050919050565b610d5182826001612fe2565b5050565b6000600960019054906101000a900473ffffffffffffffffffffffffffffffffffffffff169050600073ffffffffffffffffffffffffffffffffffffffff168173ffffffffffffffffffffffffffffffffffffffff1603610ddd57600960009054906101000a900460ff16610ddc5773721c008fdff27bf06e7e123956e2fe03b63342e390505b5b90565b6000807fcaee23ea077851ee825819a64124f89235283956b811450bfef78adb3ab8b8d89150600190509091565b6000610e18613111565b600154600054030390507fffffffffffffffffffffffffffffffffffffffffffffffffffffffffffffffff610e4b613116565b14610e5857600854810190505b90565b6000610e668261313e565b905073ffffffffffffffffffffffffffffffffffffffff8473ffffffffffffffffffffffffffffffffffffffff161693508373ffffffffffffffffffffffffffffffffffffffff168173ffffffffffffffffffffffffffffffffffffffff1614610edb57610eda63a114810060e01b612fd8565b5b600080610ee784613257565b91509150610efd8187610ef861327e565b61328d565b610f2857610f1286610f0d61327e565b612b63565b610f2757610f266359c896be60e01b612fd8565b5b5b610f3586868660016132d1565b8015610f4057600082555b600560008773ffffffffffffffffffffffffffffffffffffffff1673ffffffffffffffffffffffffffffffffffffffff168152602001908152602001600020600081546001900391905081905550600560008673ffffffffffffffffffffffffffffffffffffffff1673ffffffffffffffffffffffffffffffffffffffff168152602001908152602001600020600081546001019190508190555061100e85610fea8888876135fc565b7c020000000000000000000000000000000000000000000000000000000017613624565b600460008681526020019081526020016000208190555060007c02000000000000000000000000000000000000000000000000000000008416036110945760006001850190506000600460008381526020019081526020016000205403611092576000548114611091578360046000838152602001908152602001600020819055505b5b505b600073ffffffffffffffffffffffffffffffffffffffff8673ffffffffffffffffffffffffffffffffffffffff161690508481887fddf252ad1be2c89b69c2b068fc378daa952ba7f163c4a11628f55a4df523b3ef600080a4600081036111065761110563ea553b3460e01b612fd8565b5b611113878787600161364f565b50505050505050565b611124612d03565b80601060006101000a81548160ff02191690831515021790555050565b611149612d03565b6111536000612465565b600073ffffffffffffffffffffffffffffffffffffffff167f8e2b9dd8025fe2e7e5b551d5c569c5e9a417fd1c715cc97fa39a793f2526716c60405160405180910390a2565b6000806000600b6000868152602001908152602001600020905060008160000160009054906101000a900473ffffffffffffffffffffffffffffffffffffffff16905060008260000160149054906101000a90046bffffffffffffffffffffffff169050600073ffffffffffffffffffffffffffffffffffffffff168273ffffffffffffffffffffffffffffffffffffffff160361127a57600a60000160009054906101000a900473ffffffffffffffffffffffffffffffffffffffff169150600a60000160149054906101000a90046bffffffffffffffffffffffff1690505b6000611284613682565b6bffffffffffffffffffffffff16826bffffffffffffffffffffffff16886112ac91906152e4565b6112b69190615355565b9050828195509550505050509250929050565b60008073ffffffffffffffffffffffffffffffffffffffff16601260009054906101000a900473ffffffffffffffffffffffffffffffffffffffff1673ffffffffffffffffffffffffffffffffffffffff160361132957600090506113c8565b601260009054906101000a900473ffffffffffffffffffffffffffffffffffffffff1673ffffffffffffffffffffffffffffffffffffffff16632e14956f836040518263ffffffff1660e01b81526004016113849190614928565b602060405180830381865afa1580156113a1573d6000803e3d6000fd5b505050506040513d601f19601f820116820180604052508101906113c5919061539b565b90505b919050565b6000803073ffffffffffffffffffffffffffffffffffffffff16638462151c856040518263ffffffff1660e01b815260040161140991906145f2565b600060405180830381865afa158015611426573d6000803e3d6000fd5b505050506040513d6000823e3d601f19601f8201168201806040525081019061144f91906154a0565b905080518310611494576040517f08c379a000000000000000000000000000000000000000000000000000000000815260040161148b90615535565b60405180910390fd5b8083815181106114a7576114a6615555565b5b602002602001015191505092915050565b6060600073ffffffffffffffffffffffffffffffffffffffff16601260009054906101000a900473ffffffffffffffffffffffffffffffffffffffff1673ffffffffffffffffffffffffffffffffffffffff160361154b576040517f08c379a0000000000000000000000000000000000000000000000000000000008152600401611542906155d0565b60405180910390fd5b601260009054906101000a900473ffffffffffffffffffffffffffffffffffffffff1673ffffffffffffffffffffffffffffffffffffffff16633466cc93836040518263ffffffff1660e01b81526004016115a691906145f2565b600060405180830381865afa1580156115c3573d6000803e3d6000fd5b505050506040513d6000823e3d601f19601f820116820180604052508101906115ec91906154a0565b9050919050565b6115fb612d03565b61160361368c565b82828290501461163f576040517f2088657d00000000000000000000000000000000000000000000000000000000815260040160405180910390fd5b60008303611679576040517ff4f5b73300000000000000000000000000000000000000000000000000000000815260040160405180910390fd5b60006116836136d2565b905060005b848110156117035760008484838181106116a5576116a4615555565b5b90506020028101906116b791906155ff565b9050036116f0576040517f13f04adb00000000000000000000000000000000000000000000000000000000815260040160405180910390fd5b80806116fb90615662565b915050611688565b5061170e85856136db565b60005b8481101561177d5783838281811061172c5761172b615555565b5b905060200281019061173e91906155ff565b60116000848661174e91906156aa565b8152602001908152602001600020918261176992919061588b565b50808061177590615662565b915050611711565b50838573ffffffffffffffffffffffffffffffffffffffff167f059b47189b97a25d79b2e8a4a5af2bbb0e875b59ce5057302a77e2c6c9e2d50360405160405180910390a3506117cb6136f9565b50505050565b6117d9612d03565b6117e161368c565b600047905060008103611820576040517f67e3990d00000000000000000000000000000000000000000000000000000000815260040160405180910390fd5b600061182a612170565b73ffffffffffffffffffffffffffffffffffffffff168260405161184d9061598c565b60006040518083038185875af1925050503d806000811461188a576040519150601f19603f3d011682016040523d82523d6000602084013e61188f565b606091505b50509050806118ca576040517f27fcd9d100000000000000000000000000000000000000000000000000000000815260040160405180910390fd5b50506118d46136f9565b565b6060600073ffffffffffffffffffffffffffffffffffffffff16601260009054906101000a900473ffffffffffffffffffffffffffffffffffffffff1673ffffffffffffffffffffffffffffffffffffffff1603611969576040517f08c379a0000000000000000000000000000000000000000000000000000000008152600401611960906155d0565b60405180910390fd5b601260009054906101000a900473ffffffffffffffffffffffffffffffffffffffff1673ffffffffffffffffffffffffffffffffffffffff16633cdeeeac6040518163ffffffff1660e01b8152600401600060405180830381865afa1580156119d6573d6000803e3d6000fd5b505050506040513d6000823e3d601f19601f820116820180604052508101906119ff91906154a0565b905090565b611a1f83838360405180602001604052806000815250612716565b505050565b611a35611a2f613703565b8261370b565b611a6b576040517fe433766c00000000000000000000000000000000000000000000000000000000815260040160405180910390fd5b6000611a7682611d83565b9050601160008381526020019081526020016000206000611a979190614554565b611aa0826137a0565b600073ffffffffffffffffffffffffffffffffffffffff16601260009054906101000a900473ffffffffffffffffffffffffffffffffffffffff1673ffffffffffffffffffffffffffffffffffffffff1614611b8657601260009054906101000a900473ffffffffffffffffffffffffffffffffffffffff1673ffffffffffffffffffffffffffffffffffffffff1663848ab38f82846040518363ffffffff1660e01b8152600401611b53929190614a2f565b600060405180830381600087803b158015611b6d57600080fd5b505af1158015611b81573d6000803e3d6000fd5b505050505b611b8f826137ff565b5050565b601060009054906101000a900460ff1681565b611bae612d03565b600073ffffffffffffffffffffffffffffffffffffffff16601260009054906101000a900473ffffffffffffffffffffffffffffffffffffffff1673ffffffffffffffffffffffffffffffffffffffff1603611c3f576040517f08c379a0000000000000000000000000000000000000000000000000000000008152600401611c36906155d0565b60405180910390fd5b601260009054906101000a900473ffffffffffffffffffffffffffffffffffffffff1673ffffffffffffffffffffffffffffffffffffffff16634f415be28484846040518463ffffffff1660e01b8152600401611c9e93929190615a0b565b600060405180830381600087803b158015611cb857600080fd5b505af1158015611ccc573d6000803e3d6000fd5b50505050505050565b600080611ce0610d55565b9150600073ffffffffffffffffffffffffffffffffffffffff168273ffffffffffffffffffffffffffffffffffffffff16141590509091565b611d21612d03565b611d2a83612f2c565b611d60576040517f9430a17e00000000000000000000000000000000000000000000000000000000815260040160405180910390fd5b611d6b83838361380d565b505050565b600960159054906101000a900460ff1681565b6000611d8e8261313e565b9050919050565b600f5481565b6000601060019054906101000a900460ff16905090565b60008073ffffffffffffffffffffffffffffffffffffffff168273ffffffffffffffffffffffffffffffffffffffff1603611df857611df7638f4eb60460e01b612fd8565b5b67ffffffffffffffff600560008473ffffffffffffffffffffffffffffffffffffffff1673ffffffffffffffffffffffffffffffffffffffff16815260200190815260200160002054169050919050565b611e51612d03565b611e5b60006139c5565b565b60606000611e6a83611db2565b905060008103611ec657600067ffffffffffffffff811115611e8f57611e8e614f8d565b5b604051908082528060200260200182016040528015611ebd5781602001602082028036833780820191505090505b50915050611fc1565b60008167ffffffffffffffff811115611ee257611ee1614f8d565b5b604051908082528060200260200182016040528015611f105781602001602082028036833780820191505090505b509050600080611f1e610e0e565b90506000600190505b818111158015611f3657508483105b15611fb8578673ffffffffffffffffffffffffffffffffffffffff16611f5b82611d83565b73ffffffffffffffffffffffffffffffffffffffff1603611fa55780848481518110611f8a57611f89615555565b5b6020026020010181815250508280611fa190615662565b9350505b8080611fb090615662565b915050611f27565b50829450505050505b919050565b611fce612d03565b611feb73721c008fdff27bf06e7e123956e2fe03b63342e3612465565b73721c008fdff27bf06e7e123956e2fe03b63342e373ffffffffffffffffffffffffffffffffffffffff167f8e2b9dd8025fe2e7e5b551d5c569c5e9a417fd1c715cc97fa39a793f2526716c60405160405180910390a2565b61204c612d03565b600073ffffffffffffffffffffffffffffffffffffffff16601260009054906101000a900473ffffffffffffffffffffffffffffffffffffffff1673ffffffffffffffffffffffffffffffffffffffff16036120dd576040517f08c379a00000000000000000000000000000000000000000000000000000000081526004016120d4906155d0565b60405180910390fd5b601260009054906101000a900473ffffffffffffffffffffffffffffffffffffffff1673ffffffffffffffffffffffffffffffffffffffff16638d305ee183836040518363ffffffff1660e01b815260040161213a929190615a3d565b600060405180830381600087803b15801561215457600080fd5b505af1158015612168573d6000803e3d6000fd5b505050505050565b6000600c60009054906101000a900473ffffffffffffffffffffffffffffffffffffffff16905090565b6121a2612d03565b80601060016101000a81548160ff02191690831515021790555050565b6121c7612d03565b8181600e91826121d892919061588b565b505050565b6060600380546121ec90615284565b80601f016020809104026020016040519081016040528092919081815260200182805461221890615284565b80156122655780601f1061223a57610100808354040283529160200191612265565b820191906000526020600020905b81548152906001019060200180831161224857829003601f168201915b5050505050905090565b612277612d03565b80601260006101000a81548173ffffffffffffffffffffffffffffffffffffffff021916908373ffffffffffffffffffffffffffffffffffffffff1602179055508073ffffffffffffffffffffffffffffffffffffffff167f1253844b0fff3da7dd2829de816c9b4f94c238cf2bf6eb72c02c7d6f2b53beac60405160405180910390a250565b612306613a8b565b80600960156101000a81548160ff0219169083151502179055507f6787c7f9a80aa0f5ceddab2c54f1f5169c0b88e75dd5e19d5e858a64144c7dbc8160405161234f91906146c1565b60405180910390a150565b806007600061236761327e565b73ffffffffffffffffffffffffffffffffffffffff1673ffffffffffffffffffffffffffffffffffffffff16815260200190815260200160002060008473ffffffffffffffffffffffffffffffffffffffff1673ffffffffffffffffffffffffffffffffffffffff16815260200190815260200160002060006101000a81548160ff0219169083151502179055508173ffffffffffffffffffffffffffffffffffffffff1661241461327e565b73ffffffffffffffffffffffffffffffffffffffff167f17307eab39ab6107e8899845ad3d59bd9653f200f220920489ca2b5937696c318360405161245991906146c1565b60405180910390a35050565b61246d613a8b565b6000808273ffffffffffffffffffffffffffffffffffffffff163b119050600073ffffffffffffffffffffffffffffffffffffffff168273ffffffffffffffffffffffffffffffffffffffff16141580156124c6575080155b156124fd576040517f32483afb00000000000000000000000000000000000000000000000000000000815260040160405180910390fd5b7fcc5dc080ff977b3c3a211fa63ab74f90f658f5ba9d3236e92c8f59570f442aac612526610d55565b83604051612535929190615a66565b60405180910390a16001600960006101000a81548160ff02191690831515021790555081600960016101000a81548173ffffffffffffffffffffffffffffffffffffffff021916908373ffffffffffffffffffffffffffffffffffffffff1602179055506125a282613a95565b5050565b606080600073ffffffffffffffffffffffffffffffffffffffff16601260009054906101000a900473ffffffffffffffffffffffffffffffffffffffff1673ffffffffffffffffffffffffffffffffffffffff160361263a576040517f08c379a0000000000000000000000000000000000000000000000000000000008152600401612631906155d0565b60405180910390fd5b601260009054906101000a900473ffffffffffffffffffffffffffffffffffffffff1673ffffffffffffffffffffffffffffffffffffffff1663aae876716040518163ffffffff1660e01b8152600401600060405180830381865afa1580156126a7573d6000803e3d6000fd5b505050506040513d6000823e3d601f19601f820116820180604052508101906126d09190615b67565b915091509091565b60008073ffffffffffffffffffffffffffffffffffffffff166126f9610d55565b73ffffffffffffffffffffffffffffffffffffffff161415905090565b612721848484610e5b565b60008373ffffffffffffffffffffffffffffffffffffffff163b146127625761274c84848484613b4c565b6127615761276063d1a57ed660e01b612fd8565b5b5b50505050565b612770612d03565b601060019054906101000a900460ff16156127b7576040517fe7bacb8800000000000000000000000000000000000000000000000000000000815260040160405180910390fd5b6127c083612f2c565b6127f6576040517f9430a17e00000000000000000000000000000000000000000000000000000000815260040160405180910390fd5b60008282905003612833576040517f13f04adb00000000000000000000000000000000000000000000000000000000815260040160405180910390fd5b818160116000868152602001908152602001600020918261285592919061588b565b50505050565b606061286682612f2c565b61289c576040517f9430a17e00000000000000000000000000000000000000000000000000000000815260040160405180910390fd5b60006011600084815260200190815260200160002080546128bc90615284565b80601f01602080910402602001604051908101604052809291908181526020018280546128e890615284565b80156129355780601f1061290a57610100808354040283529160200191612935565b820191906000526020600020905b81548152906001019060200180831161291857829003601f168201915b505050505090506000815103612977576040517f13f04adb00000000000000000000000000000000000000000000000000000000815260040160405180910390fd5b80915050919050565b61298861368c565b601060009054906101000a900460ff166129ce576040517faf79b43700000000000000000000000000000000000000000000000000000000815260040160405180910390fd5b60008282905003612a0b576040517f13f04adb00000000000000000000000000000000000000000000000000000000815260040160405180910390fd5b600f543414612a46576040517fcd1c886700000000000000000000000000000000000000000000000000000000815260040160405180910390fd5b6000612a506136d2565b9050612a5d3360016136db565b8282601160008481526020019081526020016000209182612a7f92919061588b565b50803373ffffffffffffffffffffffffffffffffffffffff167fb9144c96c86541f6fa89c9f2f02495cccf4b08cd6643e26d34ee00aa586558a860405160405180910390a350612acd6136f9565b5050565b6060600e8054612ae090615284565b80601f0160208091040260200160405190810160405280929190818152602001828054612b0c90615284565b8015612b595780601f10612b2e57610100808354040283529160200191612b59565b820191906000526020600020905b815481529060010190602001808311612b3c57829003601f168201915b5050505050905090565b6000612b6f8383613c7b565b905080612bc557600960159054906101000a900460ff1615612bc457612b93610d55565b73ffffffffffffffffffffffffffffffffffffffff168273ffffffffffffffffffffffffffffffffffffffff161490505b5b92915050565b601260009054906101000a900473ffffffffffffffffffffffffffffffffffffffff1681565b612bf9612d03565b600073ffffffffffffffffffffffffffffffffffffffff168173ffffffffffffffffffffffffffffffffffffffff1603612c6b5760006040517f1e4fbdf7000000000000000000000000000000000000000000000000000000008152600401612c6291906145f2565b60405180910390fd5b612c74816139c5565b50565b612c7f612d03565b80600f8190555050565b60007f2a55205a000000000000000000000000000000000000000000000000000000007bffffffffffffffffffffffffffffffffffffffffffffffffffffffff1916827bffffffffffffffffffffffffffffffffffffffffffffffffffffffff19161480612cfc5750612cfb82613d0f565b5b9050919050565b612d0b613703565b73ffffffffffffffffffffffffffffffffffffffff16612d29612170565b73ffffffffffffffffffffffffffffffffffffffff1614612d8857612d4c613703565b6040517f118cdaa7000000000000000000000000000000000000000000000000000000008152600401612d7f91906145f2565b60405180910390fd5b565b6000612d94613682565b6bffffffffffffffffffffffff16905080826bffffffffffffffffffffffff161115612df95781816040517f6f483d09000000000000000000000000000000000000000000000000000000008152600401612df0929190615c10565b60405180910390fd5b600073ffffffffffffffffffffffffffffffffffffffff168373ffffffffffffffffffffffffffffffffffffffff1603612e6b5760006040517fb6d9900a000000000000000000000000000000000000000000000000000000008152600401612e6291906145f2565b60405180910390fd5b60405180604001604052808473ffffffffffffffffffffffffffffffffffffffff168152602001836bffffffffffffffffffffffff16815250600a60008201518160000160006101000a81548173ffffffffffffffffffffffffffffffffffffffff021916908373ffffffffffffffffffffffffffffffffffffffff16021790555060208201518160000160146101000a8154816bffffffffffffffffffffffff02191690836bffffffffffffffffffffffff160217905550905050505050565b600081612f37613111565b11612fd257612f44613116565b821115612f6e57612f676004600084815260200190815260200160002054613d79565b9050612fd3565b600054821015612fd15760005b6000600460008581526020019081526020016000205491508103612faa5782612fa390615c39565b9250612f7b565b60007c01000000000000000000000000000000000000000000000000000000008216149150505b5b5b919050565b8060005260046000fd5b6000612fed83611d83565b905081801561302f57508073ffffffffffffffffffffffffffffffffffffffff1661301661327e565b73ffffffffffffffffffffffffffffffffffffffff1614155b1561305b576130458161304061327e565b612b63565b61305a5761305963cfb3b94260e01b612fd8565b5b5b836006600085815260200190815260200160002060000160006101000a81548173ffffffffffffffffffffffffffffffffffffffff021916908373ffffffffffffffffffffffffffffffffffffffff160217905550828473ffffffffffffffffffffffffffffffffffffffff168273ffffffffffffffffffffffffffffffffffffffff167f8c5be1e5ebec7d5bd14f71427d1e84f3dd0314c0f7b2291e5b200ac8c7c3b92560405160405180910390a450505050565b600090565b60007fffffffffffffffffffffffffffffffffffffffffffffffffffffffffffffffff905090565b600081613149613111565b11613241576004600083815260200190815260200160002054905061316c613116565b8211156131915761317c81613d79565b6132525761319063df2d9b4260e01b612fd8565b5b600081036132185760005482106131b3576131b263df2d9b4260e01b612fd8565b5b5b600460008360019003935083815260200190815260200160002054905060008103156132135760007c0100000000000000000000000000000000000000000000000000000000821603156132525761321263df2d9b4260e01b612fd8565b5b6131b4565b60007c010000000000000000000000000000000000000000000000000000000082160315613252575b61325163df2d9b4260e01b612fd8565b5b919050565b60008060006006600085815260200190815260200160002090508092508254915050915091565b6000613288613703565b905090565b600073ffffffffffffffffffffffffffffffffffffffff8316925073ffffffffffffffffffffffffffffffffffffffff821691508382148383141790509392505050565b600073ffffffffffffffffffffffffffffffffffffffff16601260009054906101000a900473ffffffffffffffffffffffffffffffffffffffff1673ffffffffffffffffffffffffffffffffffffffff16146134645760005b81811015613462576000818461334091906156aa565b9050600073ffffffffffffffffffffffffffffffffffffffff168673ffffffffffffffffffffffffffffffffffffffff16141580156134175750601260009054906101000a900473ffffffffffffffffffffffffffffffffffffffff1673ffffffffffffffffffffffffffffffffffffffff16632e14956f826040518263ffffffff1660e01b81526004016133d59190614928565b602060405180830381865afa1580156133f2573d6000803e3d6000fd5b505050506040513d601f19601f82011682018060405250810190613416919061539b565b5b1561344e576040517f207c809500000000000000000000000000000000000000000000000000000000815260040160405180910390fd5b50808061345a90615662565b91505061332a565b505b61347084848484613dba565b600073ffffffffffffffffffffffffffffffffffffffff16601260009054906101000a900473ffffffffffffffffffffffffffffffffffffffff1673ffffffffffffffffffffffffffffffffffffffff16141580156134fc5750600073ffffffffffffffffffffffffffffffffffffffff168473ffffffffffffffffffffffffffffffffffffffff1614155b80156135355750600073ffffffffffffffffffffffffffffffffffffffff168373ffffffffffffffffffffffffffffffffffffffff1614155b156135f65760005b818110156135f457601260009054906101000a900473ffffffffffffffffffffffffffffffffffffffff1673ffffffffffffffffffffffffffffffffffffffff1663677ba3d38686848761359191906156aa565b6040518463ffffffff1660e01b81526004016135af93929190615c62565b600060405180830381600087803b1580156135c957600080fd5b505af11580156135dd573d6000803e3d6000fd5b5050505080806135ec90615662565b91505061353d565b505b50505050565b60008060e883901c905060e8613613868684613ded565b62ffffff16901b9150509392505050565b600073ffffffffffffffffffffffffffffffffffffffff83169250814260a01b178317905092915050565b60005b8181101561367b576136708585838661366b91906156aa565b613df6565b806001019050613652565b5050505050565b6000612710905090565b6002600d54036136c8576040517f3ee5aeb500000000000000000000000000000000000000000000000000000000815260040160405180910390fd5b6002600d81905550565b60008054905090565b6136f5828260405180602001604052806000815250613ef6565b5050565b6001600d81905550565b600033905090565b60008061371783611d83565b90508073ffffffffffffffffffffffffffffffffffffffff168473ffffffffffffffffffffffffffffffffffffffff16148061375957506137588185612b63565b5b8061379757508373ffffffffffffffffffffffffffffffffffffffff1661377f84610ce7565b73ffffffffffffffffffffffffffffffffffffffff16145b91505092915050565b600b6000828152602001908152602001600020600080820160006101000a81549073ffffffffffffffffffffffffffffffffffffffff02191690556000820160146101000a8154906bffffffffffffffffffffffff0219169055505050565b61380a816000613f72565b50565b6000613817613682565b6bffffffffffffffffffffffff16905080826bffffffffffffffffffffffff16111561387e578382826040517fdfd1fc1b00000000000000000000000000000000000000000000000000000000815260040161387593929190615c99565b60405180910390fd5b600073ffffffffffffffffffffffffffffffffffffffff168373ffffffffffffffffffffffffffffffffffffffff16036138f2578360006040517f969f08520000000000000000000000000000000000000000000000000000000081526004016138e9929190615cd0565b60405180910390fd5b60405180604001604052808473ffffffffffffffffffffffffffffffffffffffff168152602001836bffffffffffffffffffffffff16815250600b600086815260200190815260200160002060008201518160000160006101000a81548173ffffffffffffffffffffffffffffffffffffffff021916908373ffffffffffffffffffffffffffffffffffffffff16021790555060208201518160000160146101000a8154816bffffffffffffffffffffffff02191690836bffffffffffffffffffffffff16021790555090505050505050565b6000600c60009054906101000a900473ffffffffffffffffffffffffffffffffffffffff16905081600c60006101000a81548173ffffffffffffffffffffffffffffffffffffffff021916908373ffffffffffffffffffffffffffffffffffffffff1602179055508173ffffffffffffffffffffffffffffffffffffffff168173ffffffffffffffffffffffffffffffffffffffff167f8be0079c531659141344cd1fd0a4f28419497f9722a3daafe3b4186f6b6457e060405160405180910390a35050565b613a93612d03565b565b600073ffffffffffffffffffffffffffffffffffffffff168173ffffffffffffffffffffffffffffffffffffffff1614613b49576000813b90506000811115613b47578173ffffffffffffffffffffffffffffffffffffffff1663fb2de5d730613afd6141a3565b6040518363ffffffff1660e01b8152600401613b1a929190615d16565b600060405180830381600087803b158015613b3457600080fd5b505af1925050508015613b45575060015b505b505b50565b60008373ffffffffffffffffffffffffffffffffffffffff1663150b7a02613b7261327e565b8786866040518563ffffffff1660e01b8152600401613b949493929190615d94565b6020604051808303816000875af1925050508015613bd057506040513d601f19601f82011682018060405250810190613bcd9190615df5565b60015b613c28573d8060008114613c00576040519150601f19603f3d011682016040523d82523d6000602084013e613c05565b606091505b506000815103613c2057613c1f63d1a57ed660e01b612fd8565b5b805181602001fd5b63150b7a0260e01b7bffffffffffffffffffffffffffffffffffffffffffffffffffffffff1916817bffffffffffffffffffffffffffffffffffffffffffffffffffffffff191614915050949350505050565b6000600760008473ffffffffffffffffffffffffffffffffffffffff1673ffffffffffffffffffffffffffffffffffffffff16815260200190815260200160002060008373ffffffffffffffffffffffffffffffffffffffff1673ffffffffffffffffffffffffffffffffffffffff16815260200190815260200160002060009054906101000a900460ff16905092915050565b60007f01ffc9a7000000000000000000000000000000000000000000000000000000007bffffffffffffffffffffffffffffffffffffffffffffffffffffffff1916827bffffffffffffffffffffffffffffffffffffffffffffffffffffffff1916149050919050565b60007c0100000000000000000000000000000000000000000000000000000000821673ffffffffffffffffffffffffffffffffffffffff8316119050919050565b60005b81811015613de657613ddb85858386613dd691906156aa565b6141ad565b806001019050613dbd565b5050505050565b60009392505050565b60008073ffffffffffffffffffffffffffffffffffffffff168473ffffffffffffffffffffffffffffffffffffffff1614905060008073ffffffffffffffffffffffffffffffffffffffff168473ffffffffffffffffffffffffffffffffffffffff16149050818015613e665750805b15613e9d576040517f5cbd944100000000000000000000000000000000000000000000000000000000815260040160405180910390fd5b8115613ebb57613eb6613eae613703565b8585346142ad565b613eef565b8015613ed957613ed4613ecc613703565b8685346142b3565b613eee565b613eed613ee4613703565b868686346142b9565b5b5b5050505050565b613f0083836142c0565b60008373ffffffffffffffffffffffffffffffffffffffff163b14613f6d57600080549050600083820390505b613f406000868380600101945086613b4c565b613f5557613f5463d1a57ed660e01b612fd8565b5b818110613f2d578160005414613f6a57600080fd5b50505b505050565b6000613f7d8361313e565b90506000819050600080613f9086613257565b915091508415613fd857613fac8184613fa761327e565b61328d565b613fd757613fc183613fbc61327e565b612b63565b613fd657613fd56359c896be60e01b612fd8565b5b5b5b613fe68360008860016132d1565b8015613ff157600082555b600160806001901b03600560008573ffffffffffffffffffffffffffffffffffffffff1673ffffffffffffffffffffffffffffffffffffffff1681526020019081526020016000206000828254019250508190555061409983614056856000886135fc565b7c02000000000000000000000000000000000000000000000000000000007c01000000000000000000000000000000000000000000000000000000001717613624565b600460008881526020019081526020016000208190555060007c020000000000000000000000000000000000000000000000000000000085160361411f576000600187019050600060046000838152602001908152602001600020540361411d57600054811461411c578460046000838152602001908152602001600020819055505b5b505b85600073ffffffffffffffffffffffffffffffffffffffff168473ffffffffffffffffffffffffffffffffffffffff167fddf252ad1be2c89b69c2b068fc378daa952ba7f163c4a11628f55a4df523b3ef60405160405180910390a461418983600088600161364f565b600160008154809291906001019190505550505050505050565b60006102d1905090565b60008073ffffffffffffffffffffffffffffffffffffffff168473ffffffffffffffffffffffffffffffffffffffff1614905060008073ffffffffffffffffffffffffffffffffffffffff168473ffffffffffffffffffffffffffffffffffffffff1614905081801561421d5750805b15614254576040517f5cbd944100000000000000000000000000000000000000000000000000000000815260040160405180910390fd5b81156142725761426d614265613703565b858534614446565b6142a6565b80156142905761428b614283613703565b86853461444c565b6142a5565b6142a461429b613703565b86868634614452565b5b5b5050505050565b50505050565b50505050565b5050505050565b600080549050600082036142df576142de63b562e8dd60e01b612fd8565b5b6142ec60008483856132d1565b61430c836142fd60008660006135fc565b61430685614544565b17613624565b6004600083815260200190815260200160002081905550600160406001901b178202600560008573ffffffffffffffffffffffffffffffffffffffff1673ffffffffffffffffffffffffffffffffffffffff16815260200190815260200160002060008282540192505081905550600073ffffffffffffffffffffffffffffffffffffffff8473ffffffffffffffffffffffffffffffffffffffff16169050600081036143c4576143c3632e07630060e01b612fd8565b5b6000838301905060008390506143d8613116565b6001830311156143f3576143f26381647e3a60e01b612fd8565b5b5b808360007fddf252ad1be2c89b69c2b068fc378daa952ba7f163c4a11628f55a4df523b3ef600080a48181600101915081036143f45781600081905550505050614441600084838561364f565b505050565b50505050565b50505050565b600061445c610d55565b9050600073ffffffffffffffffffffffffffffffffffffffff168173ffffffffffffffffffffffffffffffffffffffff161461453b578073ffffffffffffffffffffffffffffffffffffffff163373ffffffffffffffffffffffffffffffffffffffff16036144cb575061453d565b8073ffffffffffffffffffffffffffffffffffffffff1663caee23ea878787876040518563ffffffff1660e01b815260040161450a9493929190615e22565b60006040518083038186803b15801561452257600080fd5b505afa158015614536573d6000803e3d6000fd5b505050505b505b5050505050565b60006001821460e11b9050919050565b50805461456090615284565b6000825580601f106145725750614591565b601f0160209004906000526020600020908101906145909190614594565b5b50565b5b808211156145ad576000816000905550600101614595565b5090565b600073ffffffffffffffffffffffffffffffffffffffff82169050919050565b60006145dc826145b1565b9050919050565b6145ec816145d1565b82525050565b600060208201905061460760008301846145e3565b92915050565b6000604051905090565b600080fd5b600080fd5b60007fffffffff0000000000000000000000000000000000000000000000000000000082169050919050565b61465681614621565b811461466157600080fd5b50565b6000813590506146738161464d565b92915050565b60006020828403121561468f5761468e614617565b5b600061469d84828501614664565b91505092915050565b60008115159050919050565b6146bb816146a6565b82525050565b60006020820190506146d660008301846146b2565b92915050565b6146e5816145d1565b81146146f057600080fd5b50565b600081359050614702816146dc565b92915050565b60006bffffffffffffffffffffffff82169050919050565b61472981614708565b811461473457600080fd5b50565b60008135905061474681614720565b92915050565b6000806040838503121561476357614762614617565b5b6000614771858286016146f3565b925050602061478285828601614737565b9150509250929050565b600081519050919050565b600082825260208201905092915050565b60005b838110156147c65780820151818401526020810190506147ab565b60008484015250505050565b6000601f19601f8301169050919050565b60006147ee8261478c565b6147f88185614797565b93506148088185602086016147a8565b614811816147d2565b840191505092915050565b6000602082019050818103600083015261483681846147e3565b905092915050565b6000819050919050565b6148518161483e565b811461485c57600080fd5b50565b60008135905061486e81614848565b92915050565b60006020828403121561488a57614889614617565b5b60006148988482850161485f565b91505092915050565b600080604083850312156148b8576148b7614617565b5b60006148c6858286016146f3565b92505060206148d78582860161485f565b9150509250929050565b6148ea81614621565b82525050565b600060408201905061490560008301856148e1565b61491260208301846146b2565b9392505050565b6149228161483e565b82525050565b600060208201905061493d6000830184614919565b92915050565b60008060006060848603121561495c5761495b614617565b5b600061496a868287016146f3565b935050602061497b868287016146f3565b925050604061498c8682870161485f565b9150509250925092565b61499f816146a6565b81146149aa57600080fd5b50565b6000813590506149bc81614996565b92915050565b6000602082840312156149d8576149d7614617565b5b60006149e6848285016149ad565b91505092915050565b60008060408385031215614a0657614a05614617565b5b6000614a148582860161485f565b9250506020614a258582860161485f565b9150509250929050565b6000604082019050614a4460008301856145e3565b614a516020830184614919565b9392505050565b600060208284031215614a6e57614a6d614617565b5b6000614a7c848285016146f3565b91505092915050565b600081519050919050565b600082825260208201905092915050565b6000819050602082019050919050565b614aba8161483e565b82525050565b6000614acc8383614ab1565b60208301905092915050565b6000602082019050919050565b6000614af082614a85565b614afa8185614a90565b9350614b0583614aa1565b8060005b83811015614b36578151614b1d8882614ac0565b9750614b2883614ad8565b925050600181019050614b09565b5085935050505092915050565b60006020820190508181036000830152614b5d8184614ae5565b905092915050565b600080fd5b600080fd5b600080fd5b60008083601f840112614b8a57614b89614b65565b5b8235905067ffffffffffffffff811115614ba757614ba6614b6a565b5b602083019150836020820283011115614bc357614bc2614b6f565b5b9250929050565b60008060008060608587031215614be457614be3614617565b5b6000614bf2878288016146f3565b9450506020614c038782880161485f565b935050604085013567ffffffffffffffff811115614c2457614c2361461c565b5b614c3087828801614b74565b925092505092959194509250565b60008083601f840112614c5457614c53614b65565b5b8235905067ffffffffffffffff811115614c7157614c70614b6a565b5b602083019150836020820283011115614c8d57614c8c614b6f565b5b9250929050565b600080600060408486031215614cad57614cac614617565b5b600084013567ffffffffffffffff811115614ccb57614cca61461c565b5b614cd786828701614c3e565b93509350506020614cea868287016149ad565b9150509250925092565b6000604082019050614d0960008301856145e3565b614d1660208301846146b2565b9392505050565b600080600060608486031215614d3657614d35614617565b5b6000614d448682870161485f565b9350506020614d55868287016146f3565b9250506040614d6686828701614737565b9150509250925092565b60008060408385031215614d8757614d86614617565b5b6000614d958582860161485f565b9250506020614da6858286016149ad565b9150509250929050565b60008083601f840112614dc657614dc5614b65565b5b8235905067ffffffffffffffff811115614de357614de2614b6a565b5b602083019150836001820283011115614dff57614dfe614b6f565b5b9250929050565b60008060208385031215614e1d57614e1c614617565b5b600083013567ffffffffffffffff811115614e3b57614e3a61461c565b5b614e4785828601614db0565b92509250509250929050565b60008060408385031215614e6a57614e69614617565b5b6000614e78858286016146f3565b9250506020614e89858286016149ad565b9150509250929050565b600081519050919050565b600082825260208201905092915050565b6000819050602082019050919050565b614ec8816145d1565b82525050565b6000614eda8383614ebf565b60208301905092915050565b6000602082019050919050565b6000614efe82614e93565b614f088185614e9e565b9350614f1383614eaf565b8060005b83811015614f44578151614f2b8882614ece565b9750614f3683614ee6565b925050600181019050614f17565b5085935050505092915050565b60006040820190508181036000830152614f6b8185614ef3565b90508181036020830152614f7f8184614ae5565b90509392505050565b600080fd5b7f4e487b7100000000000000000000000000000000000000000000000000000000600052604160045260246000fd5b614fc5826147d2565b810181811067ffffffffffffffff82111715614fe457614fe3614f8d565b5b80604052505050565b6000614ff761460d565b90506150038282614fbc565b919050565b600067ffffffffffffffff82111561502357615022614f8d565b5b61502c826147d2565b9050602081019050919050565b82818337600083830152505050565b600061505b61505684615008565b614fed565b90508281526020810184848401111561507757615076614f88565b5b615082848285615039565b509392505050565b600082601f83011261509f5761509e614b65565b5b81356150af848260208601615048565b91505092915050565b600080600080608085870312156150d2576150d1614617565b5b60006150e0878288016146f3565b94505060206150f1878288016146f3565b93505060406151028782880161485f565b925050606085013567ffffffffffffffff8111156151235761512261461c565b5b61512f8782880161508a565b91505092959194509250565b60008060006040848603121561515457615153614617565b5b60006151628682870161485f565b935050602084013567ffffffffffffffff8111156151835761518261461c565b5b61518f86828701614db0565b92509250509250925092565b600080604083850312156151b2576151b1614617565b5b60006151c0858286016146f3565b92505060206151d1858286016146f3565b9150509250929050565b6000819050919050565b60006152006151fb6151f6846145b1565b6151db565b6145b1565b9050919050565b6000615212826151e5565b9050919050565b600061522482615207565b9050919050565b61523481615219565b82525050565b600060208201905061524f600083018461522b565b92915050565b7f4e487b7100000000000000000000000000000000000000000000000000000000600052602260045260246000fd5b6000600282049050600182168061529c57607f821691505b6020821081036152af576152ae615255565b5b50919050565b7f4e487b7100000000000000000000000000000000000000000000000000000000600052601160045260246000fd5b60006152ef8261483e565b91506152fa8361483e565b92508282026153088161483e565b9150828204841483151761531f5761531e6152b5565b5b5092915050565b7f4e487b7100000000000000000000000000000000000000000000000000000000600052601260045260246000fd5b60006153608261483e565b915061536b8361483e565b92508261537b5761537a615326565b5b828204905092915050565b60008151905061539581614996565b92915050565b6000602082840312156153b1576153b0614617565b5b60006153bf84828501615386565b91505092915050565b600067ffffffffffffffff8211156153e3576153e2614f8d565b5b602082029050602081019050919050565b60008151905061540381614848565b92915050565b600061541c615417846153c8565b614fed565b9050808382526020820190506020840283018581111561543f5761543e614b6f565b5b835b81811015615468578061545488826153f4565b845260208401935050602081019050615441565b5050509392505050565b600082601f83011261548757615486614b65565b5b8151615497848260208601615409565b91505092915050565b6000602082840312156154b6576154b5614617565b5b600082015167ffffffffffffffff8111156154d4576154d361461c565b5b6154e084828501615472565b91505092915050565b7f496e646578206f7574206f6620626f756e647300000000000000000000000000600082015250565b600061551f601383614797565b915061552a826154e9565b602082019050919050565b6000602082019050818103600083015261554e81615512565b9050919050565b7f4e487b7100000000000000000000000000000000000000000000000000000000600052603260045260246000fd5b7f5374616b696e6720636f6e7472616374206e6f74207365740000000000000000600082015250565b60006155ba601883614797565b91506155c582615584565b602082019050919050565b600060208201905081810360008301526155e9816155ad565b9050919050565b600080fd5b600080fd5b600080fd5b6000808335600160200384360303811261561c5761561b6155f0565b5b80840192508235915067ffffffffffffffff82111561563e5761563d6155f5565b5b60208301925060018202360383131561565a576156596155fa565b5b509250929050565b600061566d8261483e565b91507fffffffffffffffffffffffffffffffffffffffffffffffffffffffffffffffff820361569f5761569e6152b5565b5b600182019050919050565b60006156b58261483e565b91506156c08361483e565b92508282019050808211156156d8576156d76152b5565b5b92915050565b600082905092915050565b60008190508160005260206000209050919050565b60006020601f8301049050919050565b600082821b905092915050565b60006008830261574b7fffffffffffffffffffffffffffffffffffffffffffffffffffffffffffffffff8261570e565b615755868361570e565b95508019841693508086168417925050509392505050565b600061578861578361577e8461483e565b6151db565b61483e565b9050919050565b6000819050919050565b6157a28361576d565b6157b66157ae8261578f565b84845461571b565b825550505050565b600090565b6157cb6157be565b6157d6818484615799565b505050565b5b818110156157fa576157ef6000826157c3565b6001810190506157dc565b5050565b601f82111561583f57615810816156e9565b615819846156fe565b81016020851015615828578190505b61583c615834856156fe565b8301826157db565b50505b505050565b600082821c905092915050565b600061586260001984600802615844565b1980831691505092915050565b600061587b8383615851565b9150826002028217905092915050565b61589583836156de565b67ffffffffffffffff8111156158ae576158ad614f8d565b5b6158b88254615284565b6158c38282856157fe565b6000601f8311600181146158f257600084156158e0578287013590505b6158ea858261586f565b865550615952565b601f198416615900866156e9565b60005b8281101561592857848901358255600182019150602085019450602081019050615903565b868310156159455784890135615941601f891682615851565b8355505b6001600288020188555050505b50505050505050565b600081905092915050565b50565b600061597660008361595b565b915061598182615966565b600082019050919050565b600061599782615969565b9150819050919050565b600080fd5b82818337505050565b60006159bb8385614a90565b93507f07ffffffffffffffffffffffffffffffffffffffffffffffffffffffffffffff8311156159ee576159ed6159a1565b5b6020830292506159ff8385846159a6565b82840190509392505050565b60006040820190508181036000830152615a268185876159af565b9050615a3560208301846146b2565b949350505050565b6000604082019050615a526000830185614919565b615a5f60208301846146b2565b9392505050565b6000604082019050615a7b60008301856145e3565b615a8860208301846145e3565b9392505050565b600067ffffffffffffffff821115615aaa57615aa9614f8d565b5b602082029050602081019050919050565b600081519050615aca816146dc565b92915050565b6000615ae3615ade84615a8f565b614fed565b90508083825260208201905060208402830185811115615b0657615b05614b6f565b5b835b81811015615b2f5780615b1b8882615abb565b845260208401935050602081019050615b08565b5050509392505050565b600082601f830112615b4e57615b4d614b65565b5b8151615b5e848260208601615ad0565b91505092915050565b60008060408385031215615b7e57615b7d614617565b5b600083015167ffffffffffffffff811115615b9c57615b9b61461c565b5b615ba885828601615b39565b925050602083015167ffffffffffffffff811115615bc957615bc861461c565b5b615bd585828601615472565b9150509250929050565b6000615bfa615bf5615bf084614708565b6151db565b61483e565b9050919050565b615c0a81615bdf565b82525050565b6000604082019050615c256000830185615c01565b615c326020830184614919565b9392505050565b6000615c448261483e565b915060008203615c5757615c566152b5565b5b600182039050919050565b6000606082019050615c7760008301866145e3565b615c8460208301856145e3565b615c916040830184614919565b949350505050565b6000606082019050615cae6000830186614919565b615cbb6020830185615c01565b615cc86040830184614919565b949350505050565b6000604082019050615ce56000830185614919565b615cf260208301846145e3565b9392505050565b600061ffff82169050919050565b615d1081615cf9565b82525050565b6000604082019050615d2b60008301856145e3565b615d386020830184615d07565b9392505050565b600081519050919050565b600082825260208201905092915050565b6000615d6682615d3f565b615d708185615d4a565b9350615d808185602086016147a8565b615d89816147d2565b840191505092915050565b6000608082019050615da960008301876145e3565b615db660208301866145e3565b615dc36040830185614919565b8181036060830152615dd58184615d5b565b905095945050505050565b600081519050615def8161464d565b92915050565b600060208284031215615e0b57615e0a614617565b5b6000615e1984828501615de0565b91505092915050565b6000608082019050615e3760008301876145e3565b615e4460208301866145e3565b615e5160408301856145e3565b615e5e6060830184614919565b9594505050505056fea26469706673582212208f5b17bdbefa19e8d9cb899919fa4bf0d281528c0092bc9aaef703da3f2a418e64736f6c63430008140033",
  "linkReferences": {},
  "deployedLinkReferences": {}
}